:020000040800F2
:10000000E0340020E9010008DB070008C107000810
:10001000D9070008210700082D0F00080000000084
:100020000000000000000000000000004D09000872
:10003000230700080000000055080008110A000806
:10004000030200080302000803020008030200087C
:10005000030200080302000803020008030200086C
:10006000030200080302000803020008030200085C
:10007000030200080302000803020008030200084C
:10008000030200080302000803020008030200083C
:10009000030200080302000803020008030200082C
:1000A000030200080302000803020008030200081C
:1000B000650A000803020008910A0008030200080C
:1000C00003020008030200080302000803020008FC
:1000D00003020008B90C00081D0D00080302000807
:1000E00003020008030200080302000800F002F8FF
:1000F00000F06BF80AA090E8000C82448344AAF157
:100100000107DA4501D100F060F8AFF2090EBAE854
:100110000F0013F0010F18BFFB1A43F0010318473B
:1001200010200000302000000A444FF0000C10F8AE
:10013000013B13F0070408BF10F8014B1D1108BF65
:1001400010F8015B641E05D010F8016B641E01F805
:10015000016BF9D113F0080F1EBF10F8014BAD1C55
:100160000C1B09D16D1E58BF01F801CBFAD505E073
:1001700014F8016B01F8016B6D1EF9D59142D6D3CD
:10018000704700000023002400250026103A28BFF5
:1001900078C1FBD8520728BF30C148BF0B607047F9
:1001A000642900F09F80752900F09C80782900F078
:1001B0000081632900F06082732900F065820020CD
:1001C00070471FB51FBD10B510BD00F077FA11467E
:1001D000FFF7F7FF00F0F8FE00F095FA03B4FFF721
:1001E000F2FF03BC00F0AAFE094880470948004717
:1001F000FEE7FEE7FEE7FEE7FEE7FEE7FEE7FEE7D7
:10020000FEE7FEE704480549054A064B7047000033
:10021000150A0008ED000008E02E0020E034002060
:10022000E0300020E0300020704700000FB40449A7
:1002300010B503AA029800F02BFA10BC5DF814FB6D
:100240002400002070B5044685690068C10601D508
:10025000302600E02026C00707D070BDD4E9012178
:1002600030469047206A401C20626D1EF6D570BD56
:1002700070B5044685690078C00707D170BDD4E920
:10028000012120209047206A401C20626D1EF6D577
:1002900070BD70B50C460546012A05D02878800649
:1002A00000D5EA69002302E0012305E05B1C9342CC
:1002B00002D2E05C0028F9D1A869E618C01AA8614A
:1002C000286A184428622846FFF7BCFF04E0D5E9F5
:1002D000012114F8010B9047B442F8D32846FFF7E8
:1002E000C7FF70BD2DE9F04106460024106875294E
:1002F000314616A510D0AFF30080002802DA404244
:1003000013A507E031688A0701D512A502E0490765
:1003100004D511A5012401E0AFF3008000210A22D9
:1003200006F1240709E0B0FBF2FCB0FBF2F302FB9C
:100330001C00303078541846491C0028F3D123465D
:100340002A463046BDE8F04100F01AB9000000002E
:100350002D0000002B00000020000000F0B40D462E
:100360000188090502D5214C7C4402E01F4C7C44E5
:100370000E34002100F1240608E002F00F071209F4
:10038000E75D42EA03721B097754491C52EA0307EE
:10039000F3D102780023120704D5702D06D009B1DD
:1003A000022311342246F0BC00F0EAB801231034D5
:1003B000F8E770B504460D4621461068AFF300809B
:1003C000024629462046BDE870400023C6E7D21DFC
:1003D00022F00703D3E90023C0E70368126843F063
:1003E000200303600823C3610023B7E7241D000036
:1003F0002DE9F05F894604464FF0000ADFF874B13A
:10040000FB44C0F820A02046E1688847002874D04B
:10041000252806D0D4E901219047206A401C20629B
:10042000F1E700265F462046E16888472028054618
:1004300007DB312D05D2781910F8200C08B10643DE
:10044000F1E7B00701D526F00406C4F81CA0002788
:10045000C4F818A02A2D09D0284600F068FD38B34A
:1004600004EB8708303DC8F8185019E059F8041B10
:10047000204604EB87029161E1688847012F054619
:1004800018D1E069002820DA26F020061DE0D8F80F
:10049000180000EB800005EB40003038C8F8180069
:1004A0002046E1688847054600F041FD0028EED16E
:1004B000012F0AD02E2D08D12046E16888477F1CE5
:1004C0000546022F46F02006C4DBA069002803DAA7
:1004D000404246F00106A061F00701D026F0100668
:1004E0006C2D0BD0682D09D04C2D39D06A2D35D00C
:1004F000742D35D07A2D33D016E038E0E1682F46E0
:1005000020468847B842054609D16C2F26D04FF4C3
:100510008060E168064320468847054604E06C2F6A
:100520001AD04FF4807006430DB3A5F1410019288D
:1005300002D8203546F400664A4629462046266001
:100540004E46FFF72DFE80B101280BD0F61D26F098
:10055000070000F1080956E74020E4E78020D8E7CB
:100560000020D6E706F104094DE7284652E7206A45
:10057000BDE8F09FB41C000070477047704770479B
:100580002DE9F0470D4699469246044600F12408AD
:100590000168880604D5E06921F01001216000E0BF
:1005A0000120A84201DD471B00E00027A1697A195C
:1005B00002EB0900081AA0612078C00602D4204688
:1005C000FFF740FE002608E0D4E901211AF80600F2
:1005D0009047206A401C761C20624E45F4DB207850
:1005E000C0060AD52046FFF72DFE06E0D4E901211A
:1005F00030209047206A401C2062381EA7F1010776
:10060000F4DC07E0D4E9012118F805009047206ADE
:10061000401C2062281EA5F10105F3DC2046FFF7EF
:1006200027FE2078000602D50220BDE8F0870120D1
:10063000FBE7000001694A1C02610878704700B5B9
:100640008FB0CDE901310021059105497944CDE90B
:10065000031011466846FFF7CBFE0FB000BD000047
:10066000E5FFFFFF10B5436913B1AFF3008001E070
:10067000FFF70FFE012010BD127800F124010A706F
:1006800000224A700122EDE711684FF0FF32E9E7DE
:10069000074B70B50D467B44FFF7D1FF0446284653
:1006A00000F008F810B14FF0FF3070BD204670BD6B
:1006B00017090000007B00F080007047754600F0CD
:1006C0002BF8AE4605006946534620F007008546E4
:1006D00018B020B5FFF796FDBDE820404FF00006AA
:1006E0004FF000074FF000084FF0000B21F007011A
:1006F000AC46ACE8C009ACE8C009ACE8C009ACE85D
:10070000C0098D46704710B50446AFF300802046FF
:10071000BDE81040FFF762BD004870477C2E002006
:10072000FEE77047F0B5CC78002204F00F03E40632
:1007300001D58C7823430C784FF00F0C14F0FF0F89
:100740004FF0010E1BD005680E880EFA02F4264009
:10075000A64210D196000CFA06F725EA070703FA1D
:1007600006F5CE783D43282E02D0482E02D002E076
:10077000446100E00461521C082AE5D305600A8840
:10078000FF2A1CD94468002202F108060EFA06F579
:100790000E882E40AE420ED196000CFA06F7BC43EE
:1007A00003FA06F7CE783C43282E00D14561CE7877
:1007B000482E00D10561521C082AE5D34460F0BDE3
:1007C000FEE7000003490A885206FCD50149091DCD
:1007D0000880704700440040FEE7704730B50F23A3
:1007E000C27801780125F2B1144A126801F1E021C2
:1007F00002F4E062C2F5E062120AC2F10404D340DE
:100800004278A24084781C401443220181F80024DD
:10081000007800F01F018D404009800000F1E020C9
:10082000C0F8005130BD01F01F008540480980002C
:1008300000F1E020C0F8805130BD00000CED00E078
:100840000249084302490860704700000000FA05A9
:100850000CED00E070470000044A0029D16901D086
:10086000014300E08143D161704700000010024065
:10087000044A0029116901D0014300E0814311615C
:100880007047000000100240044A0029916901D01D
:10089000014300E081439161704700000010024075
:1008A000044A0029D16801D0014300E08143D160AE
:1008B000704700000010024030B5204A5168204BBC
:1008C00011F00C0103D0042901D0082901D00360E4
:1008D00012E05168536801F470114FF0020413F4F0
:1008E000803F04EB914102D053689B0301D5154B27
:1008F00000E0134B5943016051680F2303EA1111C3
:10090000114B5C5C0168E14041605468072505EAD1
:1009100014241C5D21FA04F48460546805EAD4248C
:100920001B5DD940C1605268032303EA9232064B33
:100930001B1F9A5CB1FBF2F1016130BD0010024057
:1009400000127A0000093D002C00002070470000D2
:100950000CB50022264800920192016841F48031D2
:1009600001604FF4A063016801F400310191009926
:10097000491C0091019911B900999942F3D101687C
:10098000890333D5012101911A490A6842F0100206
:100990000A600A6822F003020A600A6842F0020252
:1009A0000A604168416041684160416841F480618A
:1009B0004160416821F47C114160416841F4E811D3
:1009C0004160016841F08071016001688901FCD5D6
:1009D000416821F003014160416841F0020141603A
:1009E0004168C1F381010229FAD10CBD01920CBD0D
:1009F00000100240002002404FF0E0210428086966
:100A000003D020F004000861704740F00400FAE7CA
:100A1000704700000F4810B5016841F00101016006
:100A200041680D4A1140416001680C4A1140016063
:100A3000016821F480210160416821F4FE014160D8
:100A40004FF41F018160FFF783FF05494FF00060FD
:100A5000086010BD001002400000FFF8FFFFF6FE26
:100A600008ED00E010B54FF08044208AC00707D0A1
:100A70000648006980470020A0844FF47A70A08562
:100A8000208A20F00100208210BD00007C000020A0
:100A900010B50B4C0121204600F053F800280ED071
:100AA0000848018841F4004101800121204600F0FE
:100AB0003BF82046BDE81040002100F038B810BDDA
:100AC000000800401C0000207FB50D4604460121AF
:100AD0000420FFF7C1FEADF80440ADF8005000243B
:100AE000104DADF80640ADF802406946284600F0CA
:100AF0003FF801221146284600F02FF80121284630
:100B000000F015F81E208DF80C008DF80D40022025
:100B10008DF80E0001208DF80F0003A8FFF75EFE90
:100B20007FBD000000080040C943018270470029D2
:100B3000018802D041F0010101E021F001010180B2
:100B4000704702460020138A92890B4202EA010292
:100B500002D0002A00D001207047002A828901D0EB
:100B60000A4300E08A438281704781847047000015
:100B700030B502881B4C1C4DA0420DD0A8420BD0B2
:100B8000B0F1804F08D0194B984205D0184B9842CD
:100B900002D0184B984203D122F070034A881A43BE
:100BA000154B984206D0154B984203D022F440735F
:100BB000CA881A4302808A8882850A880285A042F0
:100BC0000AD0A84208D00E4A904205D00D4A904261
:100BD00002D00D4A904201D1097A01860121818219
:100BE00030BD0000002C01400034014000040040F2
:100BF00000080040000C00400010004000140040BD
:100C0000004001400044014000480140104A08B53E
:100C1000D36943F00103D3619204908511859089D3
:100C200040F001009081108840F0010010801C20ED
:100C30008DF8000003208DF8010002208DF80200DD
:100C400001208DF803006846FFF7C8FD08BD0000CD
:100C50000010024070B54030C5B26422B1FBF2F022
:100C6000144C30302070B1FBF2F002FB10120A205D
:100C7000B2FBF0F230326270B1FBF0F200FB121006
:100C80003030A0702420FFF79DFD2846FFF79AFD25
:100C90002078FFF797FD6078FFF794FDA078FFF7C5
:100CA00091FD2320FFF78EFDBDE87040642000F029
:100CB00065B900000000002070B5154C40F22551C8
:100CC000204600F0A1F800280ED0204600F02AF9B6
:100CD000104AC1B21088030406D444044FF0000344
:100CE00006D50A2901D0138070BD40F400400DE004
:100CF0000D2909D0C0F30D04074D401C80B22955C1
:100D00001080C728EFD870BD40F48040108070BDBF
:100D100000380140220000209004002070B5144CDF
:100D200040F22551204600F06FF8002819D02046E7
:100D300000F0F8F80F4CC5B22088B0F5C87F11D28A
:100D40000D4E00213046FFF710FF208818B9012111
:100D50003046FFF7ECFE208808490144401C208003
:100D60000D7070BD208840F40040208070BD0000F0
:100D7000004400401C0000200008004070010020DA
:100D80000029818902D041F4005101E021F4005191
:100D900081817047174910B588420AD101218C031F
:100DA0002046FFF77DFD2046BDE810400021FFF7FB
:100DB00077BD1149884202D101214C0410E00F494E
:100DC000884202D101218C040AE00D49884202D1F7
:100DD0000121CC0404E00B4988420AD101210C0511
:100DE0002046FFF745FD2046BDE810400021FFF7F3
:100DF0003FBD10BD003801400044004000480040A5
:100E0000004C00400050004070B501F01F05012665
:100E10000024C1F3421306FA05F2012B0FD0022B76
:100E20000FD0838A4FEA11210088134206FA01F697
:100E300000EA060001D000B10124204670BD83897C
:100E4000F0E7038AEEE710B5C1F3421301F01F0487
:100E50000121A140012B07D0022B07D01430002A1A
:100E6000026805D00A4304E00C30F8E71030F6E7DA
:100E70008A43026010BD000030B50446008A85B088
:100E80000D464CF6FF710840E98801432182A08994
:100E90004EF6F3110840A9882A8911436A89024352
:100EA0001143A181A08A4FF6FF410840A98901435F
:100EB000A1826846FFF700FD1948844201D10398DA
:100EC00000E00298A189090400EBC00101EB0010C9
:100ED000296801D5490000E08900B0FBF1F06422E7
:100EE000B0FBF2F109010B096FF018056B4300EB41
:100EF0008300A3891D044FF0320306D503EBC00025
:100F0000B0FBF2F000F0070005E003EB0010B0FBCF
:100F1000F2F000F00F000843208105B030BD000062
:100F2000003801408088C0F308007047FEE7303881
:100F30000A2801D201207047002070477047000046
:100F400010B56FF00400FFF757FD09480949006824
:100F5000B0FBF1F00849C0B200EB40020870C2EBF0
:100F6000C0104FF6FF7202EAC000488010BD0000BA
:100F70000800002000127A001E0000200B4949885A
:100F800048434FF0E021486100238B61086940F03D
:100F9000010008610869C20701D0C003FAD50869D9
:100FA00020F0010008618B61704700001E000020E6
:100FB00004490A885206FCD5024AC1B2121D1180AA
:100FC00070470000003801404FF4A060FFF738FC84
:100FD000FFF7B6FF4FF4E13000F050F84FF4165031
:100FE00000F09CF800F018F84FF4FA60FFF7C6FF25
:100FF000084C0020606021790120FFF72BFE60681B
:10100000401D6060B428F6DB00210120FFF722FEBE
:10101000FEE700000000002010B5084C40F6241246
:101020000021E06800F022F84FF400520021A0688F
:1010300000F01CF80120207410BD00003C000020CE
:10104000094A10B50021D268084640F2924332F8AE
:10105000104004B1491C401C9842F8D3642041431D
:10106000B1FBF3F0C0B210BD3C00002001E000F87D
:10107000011B521EFBD270470068704770B50546D1
:1010800086B0012144F20400FFF7FEFB4FF400702C
:10109000ADF8100003248DF8124018201D4E8DF875
:1010A000130004A93046FFF73DFB3015ADF81000E2
:1010B00004208DF8130004A93046FFF733FB2520E8
:1010C0008DF814008DF815408DF8164001208DF82C
:1010D000170005A8FFF782FB0020ADF80400ADF86B
:1010E0000600ADF80800ADF80C000C200A4CADF875
:1010F0000A00009569462046FFF7BEFE012240F235
:1011000025512046FFF79FFE01212046FFF738FEBC
:1011100006B070BD000801400038014070B50446BB
:1011200086B001210420FFF7AFFB01214804FFF73F
:1011300093FB284E3046FFF72DFE0420ADF810003B
:1011400003258DF8125018208DF8130004A92248A9
:10115000FFF7E8FA0820ADF8100048208DF81300DA
:1011600004A91E48FFF7DEFA00940024ADF80840F9
:101170000C20ADF80440ADF80A00ADF80640ADF81B
:101180000C4069463046FFF777FE01213046FFF7F5
:10119000F7FD012240F225513046FFF754FE26208C
:1011A0008DF8140002208DF815008DF816500120DE
:1011B0008DF8170005A8FFF711FB41F61F416320CA
:1011C000FFF782FC0648048000210648FFF7AFFCC9
:1011D00006B070BD0044004000080140000C014012
:1011E0001C0000200008004070B594B0064613AB08
:1011F00011AA694600F0DAF9002824D18DF84000E0
:101200001D4C042514E0206805EBC10113AB4058C8
:1012100012AA08A900F0CAF9002814D1694608A842
:1012200000F0DEFB88B19DF84000401C8DF84000C6
:10123000207D9DF840108842E5D8207D9DF8401023
:1012400088420ED1042014B070BD9DF848009DF86E
:101250004410884201D90220F5E79DF84000A075AE
:10126000EBE710A9304600F055FA0028EBD19DF8C5
:10127000400060750020E6E77C0000202DE9F04189
:101280007F4E00279AB0B57D307DA8427CD90421DD
:10129000306801EBC50119AB405818AA10A900F03D
:1012A00085F910A977A0FEF7C1FF00240DF11808F9
:1012B00032E0308B0121A140084217D0222173A0D7
:1012C000FEF7B4FF204600F08DFA811970A024319A
:1012D000FEF7ACFF22216DA0FEF7A8FF204600F02C
:1012E00081FA3044243048F824000BE0204600F016
:1012F00079FA3044416A48F82410F07D00B365A0C3
:10130000FEF794FF9DF86000401E844202D063A067
:10131000FEF78CFF641CE4B29DF860008442C8D3E1
:101320005FA0FEF783FF00F09FFA707D0B2814D2B8
:10133000DFE800F0080D31384048525E6B788800D5
:1013400058A0DDE7306850F83500804704E0306889
:1013500050F8351006988847074600F055FA9DF872
:10136000640001287DD050A0FEF760FF96F8EC00E5
:1013700000280DD0D6F8F0000A21B0FBF1F201FBF5
:101380001202B0FBF1F100E002E048A0FEF74EFFD0
:101390001AB0BDE8F081306850F83520DDE906016B
:1013A0009047D9E7306806AC50F8353094E807002C
:1013B0009847D1E7306806AF50F8354097E80F00FE
:1013C000A047C9E70A980090306806AF50F835404A
:1013D00097E80F00A047BFE7DDE90A01CDE900016A
:1013E000306806AF50F8354097E80F00A047B3E7E4
:1013F0000AAB06AF93E807008DE80700306850F8A5
:10140000354097E80F00A047A6E70AAC06AF94E87E
:101410000F008DE80F00306850F8354097E80F0056
:10142000A04799E70BAC06AF94E80F0001AC84E845
:101430000F000A980090306850F8354097E80F0088
:10144000A04789E70CAC06AF94E80F0002AC84E833
:101450000F00DDE90A01CDE90001306850F83540A0
:1014600000E003E097E80F00A04775E7F07D3946FC
:1014700018B116A0FEF7DAFE78E717A0FAE7000029
:101480007C0000200D0A2573280000002563000061
:101490002573000030582558000000002C00000083
:1014A00029000000256C75003B0D0A0046756E632F
:1014B00074696F6E2052756E2054696D653A2564AB
:1014C0002E2531646D730D0A000000000D0A3D30B9
:1014D0005825583B0D0A00003D256C753B0D0A0050
:1014E000F0B500252E462F462C4603782C2B03D032
:1014F000292B04D01BB103E014B9012600E05CB332
:1015000017B1222B26D026E0A3F1300CBCF1090F35
:1015100015D9A3F1610CBCF1050F10D9A3F1410C51
:10152000BCF1050F0BD9582B09D0782B07D0222BF3
:101530000CD0202B1ED02C2B1CD0FF270CE05EB92A
:10154000612B00D3203B01F8013B13E026B90127B2
:101550003C460FE0002426B1002008701770284692
:10156000F0BD3CB15C2B02D16D1CEDB2401C037888
:1015700001F8013B6D1CEDB2401CB6E730B500250B
:1015800015700AE001F8014B1478401C641CE4B2A9
:1015900014709C4201D3012030BD0478202C01D06E
:1015A000002CEFD10D70002030BD00002DE9FF4F61
:1015B000002482B089469846A24627460125264641
:1015C0002246EB46029915E0202810D002F07F0356
:1015D000052B0CD202B9802202F07F03042B01D12B
:1015E0002A280AD1521C0BF80300D2B201E0852A46
:1015F00004D0491C08780028E6D16AB102F07F02C5
:1016000000200BF8020041A1584600F0E9F938B17A
:10161000012188F8001000224FF00008029B15E01D
:10162000002088F80000F6E708F1010000F0FF084C
:1016300013F8010F202801D02A2807D1184600F0FE
:1016400077F9282802D02A2800D0C24618782828FE
:1016500001D00028E8D10299BAF1000F01D051441D
:10166000491C4FF000084346087888B1282804D068
:10167000292806D0222810D011E083B9641CE4B2D6
:101680000DE063B924B1641E14F0FF0402D00DE034
:101690004FF00108012F27D02FE04BB100234CB1B0
:1016A0002C280CD0202816D0282814D05AB110E0AD
:1016B0000123F4E7202815D009F8010B12E00125D9
:1016C000521CD2B207E0052E03D20BF80600761C9E
:1016D000F6B26D1CEDB2012C04D1022D02D103250E
:1016E0007F1CFFB2491CBFE700200BF8060007A1D2
:1016F000684600F075F900B90027049807700020CB
:1017000089F8000006B04046BDE8F08F766F696446
:10171000000000002DE9F04300248946304DB5B0AB
:10172000214622466B18491CC9B29A760A29F9D378
:1017300002E010F8011F99B101782829F9D1461C5F
:101740004FF0010833AA69463046FFF7C9FE064448
:101750009DF8CC0040B1012824D0FF2836D10BE001
:10176000012035B0BDE8F0839DF8000070B334A9C6
:10177000684600F0E5F808B10220F2E7204600F0E4
:1017800031F8284434994162298B08FA04F08143E6
:101790002983042029198876641CE4B20A2C15D9FF
:1017A0000320DEE7684600F030F9471C204600F0D1
:1017B00019F841196846243100F01EF9298B08FAFE
:1017C00004F00143281929838776E5E73078292832
:1017D00001D00028B6D189F800400020C1E7000000
:1017E0007C000020024610B500200146054B05E0B4
:1017F0005C18491CA47EC9B22044C0B29142F7D300
:1018000010BD00007C0000204FF08040018ACA0714
:101810000649D1F8F02004D04FF6FF731A44C1F8FE
:10182000F020808C1044C1F8F00070477C0000204C
:1018300000EBC00101EB00104FF0FF3101EB800025
:1018400010B581B24FF47A70FFF7E0F90149012039
:10185000C87510BD7C0000200346012000E05843FD
:10186000491EC9B2FBD270474FF08040018A21F077
:10187000010101824FF6FF718185002181840248B8
:10188000C0F8F010704700007C0000202DE9F04106
:10189000164E3088010426D51549C0B2154F0025D3
:1018A0000D54B9681248884704000FD0104800F062
:1018B000B5F8012801D0040014D0012C09D0022C65
:1018C00009D0032C09D0042C0CD108E0F86880471B
:1018D00008E009A004E00BA002E00DA000E00FA0CA
:1018E000FEF7A4FC3580BDE8F08100002200002056
:1018F000900400207C000020BAAFCAFDB4EDCEF306
:10190000210D0A00B2CECAFDB4EDCEF3210D0A00BE
:10191000B2CECAFDCCABB6E0210D0A00CEB4D5D212
:10192000B5BDC6A5C5E4B5C4BAAFCAFD210D0A0050
:1019300010F8011F202901D10028F9D1C8B2704741
:101940002DE9F0410024884605460A260C600178FE
:10195000A1F13002092A0DD9113A052A0AD95829CC
:1019600005D011F0FF0F0CD00120BDE8F081012C53
:1019700002D0F9E7412900D31026641CE4B2401CD0
:10198000E5E7102E01D084B112E0032C01D2022031
:10199000EBE72878302802D16878582801D0032056
:1019A000E3E7A41EE4B2AD1C01E00420DDE70CB1C6
:1019B000641EE4B22F783846303F092F01D9A0F1D8
:1019C000370721463046FFF747FFD8F8001007FBDE
:1019D0000011C8F8001015F8010F0028E7D1C4E77E
:1019E00002780B789A4201D00120704712B1401C56
:1019F000491CF5E70020704702780A700278002A37
:101A000002D0401C491CF7E77047002102781AB148
:101A1000491CC9B2401CF9E708467047F0B58DB0C3
:101A200004461E2308AA6946FFF7A8FD099000286E
:101A300072D19DF82000271800253E4C8DF82050CB
:101A40009DF8200054F820106846FFF7C9FF38B110
:101A50009DF82000401CC0B28DF820000728EFD36D
:101A60009DF820000426344C072855D2DFE800F00A
:101A70000404395A605F5E0030A0FEF7D7FB30A047
:101A8000FEF7D4FB3EA0FEF7D1FB4DA0FEF7CEFB48
:101A90005BA0FEF7CBFB6AA0FEF7C8FB78A0FEF7C1
:101AA000C5FB85A0FEF7C2FB8AA0FEF7BFFB8FA097
:101AB000FEF7BCFB93A0FEF7B9FB98A0FEF7B6FBC0
:101AC0009DA0FEF7B3FBA3A0FEF7B0FBAFA0FEF70F
:101AD000ADFBBCA0FEF7AAFBC7A0FEF7A7FBD3A0F7
:101AE0001BE016A0FEF7A2FBE0A0FEF79FFB8DF81F
:101AF00020500BE0216806EBC0000958EBA0FEF770
:101B000095FB9DF82000401C8DF82000217D9DF85C
:101B100020008142EED84EE24FE2FEF787FB002024
:101B20000DB0F0BD05A0FEF781FBC3E124E204E2A5
:101B3000E3E10000500000207C0000200D0A0000BE
:101B40002D2D2D2D2D2D2D2D2D2D2D2D2D2D2D2DC5
:101B50002D2D2D2D2D2D2D2D55534D4152542056CB
:101B6000332E312D2D2D2D2D2D2D2D2D2D2D2D2D9A
:101B70002D2D2D2D2D2D2D2D2D2D2D200D0A00003F
:101B80002020202055534D415254CAC7D3C9414C3F
:101B900049454E54454BBFAAB7A2B5C4D2BBB8F60F
:101BA000C1E9C7C9B5C4B4AEBFDAB5F7CAD4BBA5DD
:101BB000BDBBD7E9BCFE2CCDA8B9FD200D0A0000A5
:101BC000CBFC2CC4E3BFC9D2D4CDA8B9FDB4AEBF01
:101BD000DAD6FACAD6B5F7D3C3B3CCD0F2C0EFC3C6
:101BE000E6B5C4C8CEBACEBAAFCAFD2CB2A2D6B43E
:101BF000D0D02ED2F2B4CB2CC4E3BFC90D0A000062
:101C0000D2D4CBE6D2E2B8FCB8C4BAAFCAFDB5C4F0
:101C1000CAE4C8EBB2CECAFD28D6A7B3D6CAFDD750
:101C2000D62831302F3136BDF8D6C629A1A2D7D655
:101C3000B7FBB4AEA1A2BAAFCAFDC8EB0D0A000053
:101C4000BFDAB5D8D6B7B5C8D7F7CEAAB2CECAFDD7
:101C5000292CB5A5B8F6BAAFCAFDD7EEB6E0D6A71F
:101C6000B3D63130B8F6CAE4C8EBB2CECAFD2CB256
:101C7000A2D6A7B3D6BAAFCAFDB7B5200D0A0000E9
:101C8000BBD8D6B5CFD4CABE2ED0C2D4F6B2CECA37
:101C9000FDCFD4CABEBDF8D6C6C9E8D6C3B9A6C45E
:101CA000DC2CD0C2D4F6BDF8D6C6D7AABBBBB9A629
:101CB000C4DC2E0D0A000000BCBCCAF5D6A7B3D602
:101CC0003A7777772E6F70656E6564762E636F6DE9
:101CD0000D0A000055534D415254D3D037B8F6CFBA
:101CE000B5CDB3C3FCC1EE3A0D0A00003F3A202047
:101CF00020202020BBF1C8A1B0EFD6FAD0C5CFA2DA
:101D00000D0A000068656C703A202020BBF1C8A164
:101D1000B0EFD6FAD0C5CFA20D0A00006C6973747B
:101D20003A202020BFC9D3C3B5C4BAAFCAFDC1D0C1
:101D3000B1ED0D0A0A00000069643A20202020203D
:101D4000BFC9D3C3BAAFCAFDB5C44944C1D0B1ED10
:101D50000D0A0A006865783A20202020B2CECAFD1C
:101D60003136BDF8D6C6CFD4CABE2CBAF3B8FABF46
:101D7000D5B8F12BCAFDD7D6BCB4D6B4D0D0BDF8F7
:101D8000D6C6D7AABBBB0D0A0A0000006465633A39
:101D900020202020B2CECAFD3130BDF8D6C6CFD427
:101DA000CABE2CBAF3B8FABFD5B8F12BCAFDD7D644
:101DB000BCB4D6B4D0D0BDF8D6C6D7AABBBB0D0A2A
:101DC0000A00000072756E74696D653A312CBFAA05
:101DD000C6F4BAAFCAFDD4CBD0D0BCC6CAB13B3072
:101DE0002CB9D8B1D5BAAFCAFDD4CBD0D0BCC6CAF5
:101DF000B13B0D0A0A000000C7EBB0B4D5D5B3CC97
:101E0000D0F2B1E0D0B4B8F1CABDCAE4C8EBBAAF01
:101E1000CAFDC3FBBCB0B2CECAFDB2A2D2D4BBD8FD
:101E2000B3B5BCFCBDE1CAF82E0D0A002D2D2D2D39
:101E30002D2D2D2D2D2D2D2D2D2D2D2D2D2D2D2DD2
:101E40002D2D2D2D2D2D414C49454E54454B2D2DDD
:101E50002D2D2D2D2D2D2D2D2D2D2D2D2D2D2D2DB2
:101E60002D2D2D2D2D2D2D200D0A00002D2D2D2D4C
:101E70002D2D2D2D2D2D2D2D2D2D2D2D2D2D2D2D92
:101E80002D2D2D2D2DBAAFCAFDC7E5B5A52D2D2DB4
:101E90002D2D2D2D2D2D2D2D2D2D2D2D2D2D2D2D72
:101EA0002D2D2D2D2D2D2D2D200D0A0025730D0AE4
:101EB0000000000042A0FEF7B9F98DF8205016E0AE
:101EC000216806EBC0000BAB08580AAA6946FFF769
:101ED0006DFB9DF82010206850F83120694648A01D
:101EE000FEF7A4F99DF82000401C8DF82000217D0C
:101EF0009DF820008142E3D85DE0AFF2C030FEF7EC
:101F000095F908AA69463846FFF7EAFA9DF82000D5
:101F1000002843D109A96846FFF712FD8DF820007B
:101F200010B104283AD102E03AA009991CE03CA083
:101F3000FEF77CF90120E0753DE038A0FEF776F968
:101F400008AA69463846FFF7CBFA9DF8200028BB5F
:101F500009A96846FFF7F4FC8DF8200010B10428A9
:101F60001CD104E033A00999FEF760F923E034A006
:101F7000FEF75CF9E5751EE028A0FEF757F908AA00
:101F800069463846FFF7ACFA9DF8200030B909A938
:101F90006846FFF7D5FC8DF8200008B10220BFE5A8
:101FA000099810F0FF0084F8EC0001D029A000E0AF
:101FB0002FA0FEF73BF919A0AFE50120B0E5000026
:101FC0002D2D2D2D2D2D2D2D2D2D2D2D2D2D2D2D41
:101FD0002D2D2D2D2D2D2D2D2DBAAFCAFD2049448F
:101FE000202D2D2D2D2D2D2D2D2D2D2D2D2D2D2D2E
:101FF0002D2D2D2D2D2D2D2D2D2D2D2D200D0A008E
:1020000025732069642069733A0D0A3058253038E9
:10201000580D0A004845583A305825580D0A000016
:102020003136BDF8D6C6B2CECAFDCFD4CABE210D58
:102030000A0000004445433A256C750D0A00000073
:102040003130BDF8D6C6B2CECAFDCFD4CABE210D3E
:102050000A00000052756E2054696D652043616C62
:1020600063756C6174696F6E204F4E0D0A0000003D
:1020700052756E2054696D652043616C63756C61A7
:1020800074696F6E204F46460D0A0000016070476C
:10209000303132333435363738394142434445469E
:1020A0004030580030313233343536373839616298
:1020B000636465664030780004000008000000009A
:1020C0000000000200010000100000003F000000BE
:1020D000646563006964000072756E74696D650003
:1020E00068656C70000000006C697374000000008B
:1020F00068657800766F69642077726974655F61DE
:102100006464722875333220616464722C753332D2
:102110002076616C2900000075333220726561649D
:102120005F616464722875333220616464722900CF
:102130005021000800000020700100002801000864
:10214000B0210008700100207033000084010008F5
:102150009184A24A04C00901020304060708096D1C
:10216000020406081C69201319101B0841041358A7
:102170000514205825422013CC201B08E0041AE83F
:10218000041AD4041AF0041AD0041AD8041A792CA8
:102190001318211B088D0C1AF404226C142031181A
:1021A0001408E9111C087D1218190C1A026301DCCD
:04000005080000ED02
:00000001FF
