:020000040800F2
:10000000C807002045010008A5110008E90D0008F7
:10001000A1110008C50B0008DF2D0008000000003A
:100020000000000000000000000000003D1B000870
:10003000C90B0008000000006D160008BD1F000875
:100040005F0100085F0100085F0100085F01000810
:100050005F0100085F0100085F0100085F01000800
:100060005F0100085F0100085F0100085F010008F0
:100070005F0100085F0100085F0100085F010008E0
:100080005F0100085F0100085F0100085F010008D0
:100090005F0100085F0100085F0100085F010008C0
:1000A0005F010008892000085F0100085F01000867
:1000B000CD250008F92500085F0100085F01000850
:1000C0005F0100085F0100085F0100085F01000890
:1000D0005F010008312A00085F0100082D2B00088D
:1000E0005F0100085F0100085F0100085F01000870
:1000F0005F0100085F0100085F0100085F01000860
:100100005F0100085F0100085F0100085F0100084F
:100110005F010008592900085F0100085F0100081D
:100120005F0100085F0100085F0100085F0100082F
:10013000DFF80CD000F04EFB00480047213C0008DF
:10014000C80700200648804706480047FEE7FEE74C
:10015000FEE7FEE7FEE7FEE7FEE7FEE7FEE7FEE777
:10016000C11F000831010008D2B201E000F8012BE4
:10017000491EFBD270470022F6E710B513460A4627
:1001800004461946FFF7F0FF204610BD80EA010241
:1001900010B502F00043400022D04A001FD0010EEB
:1001A00001EB1261C0F35600C2F3560240F40000A6
:1001B00042F40002A0FB022000047F39140400D0A6
:1001C000401C50EA124001D44000491EC2B20C0645
:1001D00004EBD010401C4008802A02D003E000202D
:1001E00010BD20F00100002900DA0020184310BDE6
:1001F0002DE9FE4F81EA030404F0004421F00041A0
:1002000000944FF0000B23F0004350EA01045ED04D
:1002100052EA03045BD0C3F30A54C1F30A552C44D9
:10022000A4F2F3340194A0FB0254C1F3130141F48E
:100230008011C3F3130343F4801301FB024400FB5A
:10024000034E840A970A44EA815447EA8357A4FB81
:10025000076802958D0A05FB07854FEA932C04FB7E
:100260000C542705029D4FEA065847EA1637B5EBAE
:1002700008056EEB070C870E920E47EA811742EADB
:100280008312A7FB0201B6EB0B0164EB00042B0DFC
:1002900043EA0C335E1844EB1C50DA465146E7FB48
:1002A0000201C5F313044FEA0B3343EA14534FEA38
:1002B0000432019C43EA0603A4F10C040294009C5E
:1002C000CDE900B400F060F903B0BDE8F08F002084
:1002D0000146F9E72DE9F04D81EA030404F0004BF3
:1002E00021F0004514464FF0000A23F0004150EA87
:1002F000050220D054EA01021DD0C5F30A57024678
:10030000C5F31303C1F31300C1F30A5640F480157B
:1003100043F48013A7EB0608101BD64608F2FD38FD
:1003200073EB050002D308F1010801E092185B416C
:10033000B8F1000F03DA00200146BDE8F08D00207F
:100340004FF48011064684460EE0171B73EB050739
:1003500005D3121B63EB050306434CEA010C490865
:100360004FEA300092185B4150EA0107EDD152EAA2
:10037000030012D082EA040083EA0501084305D095
:10038000101BAB4106D20122002306E000224FF0F1
:10039000004302E06FF0010253101AEB06004CEB31
:1003A000085110EB0A0041EB0B01BDE8F04D00F0E5
:1003B000DCB896230022114600F0A9B80EB5C10F93
:1003C00080EAE0700844CA07002140F233438DE818
:1003D0000E000A460B4600F0D7F803B000BD00F04F
:1003E000004220F00040C10DC0F3160040F40000B0
:1003F0007F2901DA00207047962903DCC1F19601BC
:10040000C84001E096398840002AF4D04042704745
:1004100000F0004230F000400AD0C10D01F56071DB
:10042000C0F3160042EA0151C20840071143704769
:1004300000200146704701F0004330B421F0004134
:1004400050EA010206D00A0DA2F56072C1F3130151
:10045000002A02DC30BC00207047440F44EAC1048B
:10046000C100E01830BC00EBC25000F047B830B516
:100470000B46014600202022012409E021FA02F562
:100480009D4205D303FA02F5491B04FA02F52844FC
:10049000151EA2F10102F1DC30BD2DE9F05F054629
:1004A000002092469B4688460646814640241BE033
:1004B000284641464746224600F0ADF953465A4683
:1004C000C01A914110D311461846224600F094F903
:1004D0002D1A67EB01084F4622460120002100F04B
:1004E0008BF917EB00094E41201EA4F10104DFDC5B
:1004F000484631462A464346BDE8F09F0029A8BF3A
:100500007047401C490008BF20F00100704710B43C
:10051000B0FA80FC00FA0CF050EA010404BF10BCF1
:10052000704749B1CCF1200421FA04F411FA0CF11E
:1005300018BF012121430843A3EB0C01CB1D4FEA57
:1005400000614FEA102042BF002010BC704700EB52
:10055000C35010440029A4BF10BC7047401C490080
:1005600008BF20F0010010BC704710B5141E73F1D5
:10057000000408DA401C41F1000192185B411A4363
:1005800001D120F0010010BD2DE9F04D92469B46AF
:1005900011B1B1FA81F202E0B0FA80F22032904655
:1005A00000F02AF904460F4640EA0A0041EA0B012E
:1005B00053465A46084313D0114653EA010019D056
:1005C000C8F14002504600F026F905460E46504656
:1005D0005946424600F010F9084305D0012004E0D6
:1005E00020463946BDE8F08D0020054346EAE07616
:1005F0002C4337430A986305E40AA0EB0800002265
:10060000FD0A44EA47540A3002D500200146E9E7D2
:10061000010510196941DDE9084500196941BDE886
:10062000F04DA2E72DE9FE4F804681EA0300C00F9E
:100630000C46009021F0004123F00045B8EB020089
:10064000A94105D24046214690461C460B4602462B
:1006500023F00040104347D0270DC7F30A00C3F32F
:100660000A510290401A019040286BDAC3F313003C
:1006700040F4801B0098924620B10023D2EB030A7D
:1006800063EB0B0B01985946C0F14002504600F055
:10069000B3F806460D4650465946019A00F0CBF88D
:1006A00010EB08006141002487EA115284EAE773E5
:1006B0001A4340D0009A62B3019A012A4FEA0752C6
:1006C00015DC001B61EB02014FF0004202EA075209
:1006D000CDE90042001C41F5801132462B46FFF760
:1006E00053FF03B0BDE8F08F40462146F9E7001BF9
:1006F00061EB0201001C41F5801300185B412018DA
:10070000A2F5001747EB030140EAD570B6196D4119
:1007100011E06D084FEA360645EAC0754FEA075208
:10072000001B61EB0201001C41F5801149084FEAF2
:1007300030000019514132462B4603B0BDE8F04F5E
:10074000FFF713BF0098012240000023D0EB020204
:1007500063EBE073009821464FEAE074B8EB0000C9
:1007600061EB0401E9E783F000435BE781F00041BE
:1007700058E7C1F30A52C1F3130140F2FF3341F4C9
:1007800080119A4202DA00200146704740F233435A
:100790009A42A2F2334202DC524200F03CB800F02E
:1007A0002BB8000030B5041E71F1000404DB4FF0DB
:1007B0000044404264EB0101141E73F1000405DBA8
:1007C0001C464FF00043524263EB0403994208BFBA
:1007D000904230BD064C074D06E0E06840F0010352
:1007E00094E8070098471034AC42F6D3FFF7A4FC16
:1007F000EC6900080C6A0008202A04DB203A00FAA1
:1008000002F1002070479140C2F1200320FA03F367
:10081000194390407047202A04DB203A21FA02F065
:100820000021704721FA02F3D040C2F1200291402A
:10083000084319467047202A06DBCB17203A41FAB5
:1008400002F043EAE07306E041FA02F3D040C2F15D
:100850002002914008431946704721B1826842F056
:100860000102826003E0826822F001028260704728
:1008700010B504461248844208D10121401500F009
:1008800033FF0021601500F02FFF17E00D48844270
:1008900008D10121001500F027FF0021201500F0EC
:1008A00023FF0BE00848844208D10121C80300F06F
:1008B0001BFF00214FF4004000F016FF10BD0000A8
:1008C0000024014000280140003C01400146002076
:1008D0008A6802F004020AB1012000E0002070479B
:1008E0000146C86C80B270470246002013680B4076
:1008F0000BB1012000E000207047014600208A680B
:1009000002F008020AB1012000E000207047000058
:1009100030B502460020002350680F4C20400D796E
:100920000C6844EA05242043506090680B4C20403A
:10093000D1E902542C434D7944EA450420439060A8
:10094000D06A20F470000C7C641EE4B2234340EAB9
:100950000350D06230BD0000FFFEF0FFFDF7F1FF55
:10096000F0B504460D4600200021092D11DDE06898
:10097000A5F10A0606EB4607072606FA07F18843A3
:10098000A5F10A0606EB460603FA06F10843E06005
:100990000CE0206905EB4507072606FA07F18843B6
:1009A00005EB450603FA06F108432061072A0FDA32
:1009B000606B561E06EB86071F2606FA07F1884372
:1009C000561E06EB860605FA06F10843606322E030
:1009D0000D2A0FDA206BD61F06EB86071F2606FAB4
:1009E00007F18843D61F06EB860605FA06F1084391
:1009F000206310E0E06AA2F10D0606EB86071F26D1
:100A000006FA07F18843A2F10D0606EB860605FA01
:100A100006F10843E062F0BD816841F008018160A1
:100A2000704721B1826842F4A002826003E08268CC
:100A300022F4A00282607047816841F00401816065
:100A400070472DE9F04107460C460025002605E0D9
:100A5000384600F0AFF90544701CC6B2A642F7DB79
:100A6000B5FBF4F080B2BDE8F08100002DE9F04163
:100A700000F014F804462046FFF7CAFC0546054A74
:100A8000054BFFF7B5FB0746FFF7D5FC04462046AC
:100A9000BDE8F08172F90FE9B7AF074070B50521E5
:100AA0000A20FFF7CEFF05462846FFF782FC0646E0
:100AB0000249FFF76BFB0446204670BD3333533ABF
:100AC00000B587B001214FF4047000F0FDFD4FF434
:100AD000004000F0CDFD0120ADF8040000208DF8AD
:100AE000070001A9174800F083F81748FFF7C0FE78
:100AF000002002908DF80C008DF80D004FF460205E
:100B000004900020059001208DF8180002A90E48DD
:100B1000FFF7FEFE01210C48FFF79FFE0A48FFF792
:100B20007BFF00BF0848FFF7E8FE0028FAD106481F
:100B3000FFF782FF00BF0448FFF7C8FE0028FAD184
:100B400007B000BD001001400024014001490860C9
:100B50007047000000860D4270B51348007800B35E
:100B6000FFF784FF05461149FFF710FB0446FFF726
:100B700036FC0F4908600846006840F28A21884226
:100B80000CDA0C480068401C0A49086008460068F6
:100B9000142806DD00200449087002E00020054901
:100BA00008600148007870BD6C0000200000C84259
:100BB00070000020740000200148006870470000A9
:100BC0007000002000BFFEE7704701B500200AE07A
:100BD000002001E0411CC8B20A28FBDB9DF8001090
:100BE000491EC9B200919DF800100029F0D108BD3E
:100BF0002DE9F041024600250026002000230024B4
:100C0000002791F803C00CF00F0591F803C00CF019
:100C1000100CBCF1000F03D091F802C04CEA05059E
:100C200091F800C0BCF1000F31D0146800202BE017
:100C30004FF0010C0CFA00F3B1F800C00CEA030607
:100C40009E4220D183004FF00F0C0CFA03F7BC43F7
:100C500005FA03FC4CEA040491F803C0BCF1280F28
:100C600006D14FF0010C0CFA00FCC2F814C00AE0E7
:100C700091F803C0BCF1480F05D14FF0010C0CFAFC
:100C800000FCC2F810C0401C0828D1D31460B1F891
:100C900000C0BCF1FF0F34DD546800202EE000F1ED
:100CA000080C4FF0010808FA0CF3B1F800C00CEA88
:100CB00003069E4221D183004FF00F0C0CFA03F77C
:100CC000BC4305FA03FC4CEA040491F803C0BCF1F0
:100CD000280F05D100F1080C08FA0CF8C2F81480AE
:100CE00091F803C0BCF1480F07D100F1080C4FF098
:100CF000010808FA0CF8C2F81080401C0828CED36E
:100D00005460BDE8F0810000F0B50A4600230024DD
:100D10000021002500F00046B6F1004F02D11D4E23
:100D2000F16901E01B4E7168C0F3034583B200F422
:100D30004016B6F5401F08D121F07061154E766857
:100D400026F07066134F7E6012E000F48016B6F550
:100D5000801F06D1032606FA05F4A14341F0706115
:100D600006E0460D360103FA06F6B14341F0706124
:100D700022B1460D360103FA06F6314300F0004673
:100D8000B6F1004F02D1034EF16101E0014E7160F6
:100D9000F0BD0000000001400246002093680B40B7
:100DA0000BB1012000E000207047416170470161F4
:100DB0007047000010B50446072301222146094868
:100DC000FFF7CEFD01210748FFF72BFE00BF0221F0
:100DD0000448FFF789FD0028F9D00248FFF780FD9D
:100DE00010BD00000024014000BFFEE708488069F4
:100DF00040F01000064988610648006820F47F40F2
:100E0000044908600846006840F44C500860704788
:100E1000001002400010014070B5044614480068FC
:100E200020F47040124908600846006840F44050C1
:100E3000086000200F490860002516E0E0090D4910
:100E4000091D08606006040E0120FFF7BEFE0120A8
:100E50000949C1F88801FFF7B8FE0020054908607C
:100E60000120FFF7B2FE681CC5B2082DE6DB70BD9D
:100E700000100140880122420000224210B51648AD
:100E8000006820F47040144908600846006840F487
:100E9000405008600120114908601148D0F80C0149
:100EA00008B9002010BD01200C49091F0860FFF798
:100EB0008CFE00200A49C1F88C010848803800687F
:100EC00008B10020EEE70220FFF77FFE0020034973
:100ED000091F08600120E5E7001001408C01224253
:100EE0000000224210B51048006820F470400E49FE
:100EF00008600846006840F44050086000200B4934
:100F000008600B49C1F88C010220FFF75EFE01204A
:100F100006490860FFF759FE01200549C1F88C0118
:100F20000220FFF752FE10BD00100140880122424E
:100F30000000224210B500241548006820F47040DB
:100F4000134908600846006840F40040086001202A
:100F500010490860FFF739FE01200F49C1F88801E8
:100F6000FFF733FE0AE0601CC4B2322C03DDFFF74A
:100F7000B9FF002010BD0120FFF727FE054880388B
:100F800000680028EFD10349091F08600120F1E73C
:100F9000001001408C012242000022422DE9F04164
:100FA00007460C460025002605E0384600F096F876
:100FB0000544701CC6B2A642F7DBB5FBF4F080B264
:100FC000BDE8F08110B500F003F80446204610BDDE
:100FD00070B501210B20FFF7E1FF05462846FFF71A
:100FE000E8F906460249FFF7D1F80446204670BDED
:100FF0000000043C00B587B001214FF4047000F0FC
:1010000063FB4FF4004000F033FB0220ADF8040016
:1010100000208DF8070001A91748FFF7E9FD1748E0
:10102000FFF726FC002002908DF80C008DF80D00D3
:101030004FF4602004900020059001208DF81800E6
:1010400002A90E48FFF764FC01210C48FFF705FCDC
:101050000A48FFF7E1FC00BF0848FFF74EFC0028F4
:10106000FAD10648FFF7E8FC00BF0448FFF72EFC62
:101070000028FAD107B000BD001001400024014053
:1010800070B5FFF79FFF05460E49FFF77FF804464E
:10109000FFF7A5F90C49086008460068B0F5C86F6D
:1010A0000ADD0A480068401C0849086008460068D4
:1010B000142804DD012070BD0020044908600020D0
:1010C000F9E700000000C842980000209C000020C2
:1010D00001480068704700009800002010B50446E1
:1010E0000723012221460948FFF73AFC012107485E
:1010F000FFF797FC00BF02210448FFF7F5FB00282B
:10110000F9D00248FFF7ECFB10BD000000240140BD
:1011100010B5044600F022F801280BD1601C0D49DF
:101120000988B1EB400F0ADA0A480088401C0949D7
:10113000088004E000200749088007490880054826
:101140000088022803D101200349088010BD002037
:10115000FCE70000A4000020A200002010B54FF41E
:1011600080510448FFF718FE08B9012010BD002087
:10117000FCE70000000C014008B50121082000F048
:10118000A3FA4FF48050ADF8000048208DF803001A
:1011900069460248FFF72CFD08BD0000000C014025
:1011A00000BFFEE77047000070B5002100230F224A
:1011B000C47804B3154C246804F4E064C4F5E06416
:1011C000210AC1F10403CA40447804FA03F1847887
:1011D0001440214309010E4C0678A155047804F00F
:1011E0001F050124AC4005786D11AD0005F1E02527
:1011F000C5F8004109E0047804F01F050124AC4063
:10120000044D0678761145F8264070BD0CED00E0DF
:1012100000E400E080E100E002490143024A11607D
:10122000704700000000FA050CED00E010B500204A
:1012300000F03EFB10BDF8B507460C4615461E46AD
:10124000002C0CDD032C0ADC601E00EB8000400645
:10125000020E2B4600213846009600F001F8F8BD3A
:101260002DE9F04107460C4615461E46DDF818806C
:101270000EB1FFF7DBFF2946204600F029FB0122D3
:101280000549384600F020FCB8F1000F01D000F00D
:1012900005F8BDE8F08100008000002010B500F0E6
:1012A00029FC10BD01460148405C70472001002028
:1012B000002004E00021034A1154411CC8B209284F
:1012C000F8DB70472001002038B50446012000906B
:1012D00000201E494870012000902EE0BDF800005B
:1012E000204018B101201A49086002E00020184986
:1012F00008600120164908390860052002F0B8FB93
:1013000000201449C1F89401052002F0B1FB01202E
:101310001049C1F894010846D0F8180130B10B48C3
:101320004078BDF80010084308494870BDF8000037
:101330004FF6FF7101EA40000090BDF80000FF2861
:10134000CCDD102002F094FB38BD0000200100200D
:101350009C0121420000214210B5FFF7A9FF00F0D7
:10136000C9F80F48C0780E49097940EA01200D49B3
:10137000088000240FE00C4810F81400401E0121E2
:1013800001FA00F007490988084010B9601CC0B292
:1013900010BD601CC4B2102CEDDB0020F8E700008B
:1013A000200100203C0000204000002010B500205B
:1013B00013490860102002F05BFB0120FFF784FF57
:1013C0004320FFF781FF0020FFF77EFF0120FFF79A
:1013D0007BFF0020FFF778FF0020FFF775FF00205C
:1013E000FFF772FF0020FFF76FFF0020FFF76CFF91
:1013F00001200449C1F89001102002F039FB10BD12
:10140000900121420000214210B5002013490860DC
:10141000102002F02DFB0120FFF756FF4320FFF7BD
:1014200053FF0020FFF750FF0020FFF74DFF5A2029
:10143000FFF74AFF5A20FFF747FF5A20FFF744FF04
:101440005A20FFF741FF5A20FFF73EFF01200449D1
:10145000C1F89001102002F00BFB10BD9001214259
:101460000000214208B50121042000F02DF92820B8
:101470008DF803004020ADF8000003208DF8020035
:1014800069461B48FFF7B4FB0121042000F01CF95A
:1014900010208DF803008020ADF8000003208DF8A7
:1014A000020069461248FFF7A3FB0121042000F067
:1014B0000BF910208DF80300ADF8000003208DF823
:1014C000020069460A48FFF793FB0121042000F05F
:1014D000FBF810208DF803002020ADF80000032059
:1014E0008DF8020069460248FFF782FB08BD000044
:1014F000000801401CB50020019001200090002050
:101500002549086025490878FFF7DEFE2349487819
:10151000FFF7DAFE0220019036E00120009027E07C
:1015200001201D49091D0860052002F0A1FA0020D4
:101530001B49C1F89401052002F09AFA01201849CC
:10154000C1F894010846D0F8180150B115489DF82B
:101550000410405CBDF80010084312499DF80420B7
:101560008854BDF800004FF6FF7101EA400000907A
:10157000BDF80000FF28D3DD102002F079FA9DF8B5
:101580000400401CC0B201909DF804000928C4DB8F
:101590000120014908601CBD900121423E0000204D
:1015A000000021422001002010B500F00BF800F0EF
:1015B00009F800F007F8FFF7F9FE00F025F8FFF74B
:1015C00023FF10BD10B500200D490860102002F067
:1015D0004FFA0120FFF778FE4220FFF775FE00204A
:1015E000FFF772FE0020FFF76FFE0020FFF76CFE92
:1015F00001200449C1F89001102002F039FA10BD11
:10160000900121420000214210B5002012490860DB
:101610000120FFF759FE4420FFF756FE0020FFF798
:1016200053FE0120FFF750FE0320FFF74DFE002080
:10163000FFF74AFE0020FFF747FE0020FFF744FEB9
:101640000020FFF741FE01200449C1F8900110205D
:1016500002F00EFA10BD000090012142000021426C
:10166000014908627047000000000E427047000008
:1016700001460020034A506820F44040084350606F
:10168000704700000010024029B1064AD2690243A7
:10169000044BDA6104E0034AD2698243014BDA6108
:1016A000704700000010024029B1064A1269024347
:1016B000044B1A6104E0034A12698243014B1A6128
:1016C000704700000010024029B1064A92690243A7
:1016D000044B9A6104E0034A92698243014B9A6188
:1016E000704700000010024029B1064AD268024348
:1016F000044BDA6004E0034AD2688243014BDA60AB
:10170000704700000010024030B500210022002484
:1017100000232D4D6D6805F00C0121B1042905D081
:10172000082923D105E0294D056022E0274D0560F9
:101730001FE0254D6D6805F47012234D6D6805F4AA
:101740008034022505EB92421CB9214D55430560BA
:101750000BE01D4D6D6805F400351DB11C4D554362
:10176000056002E0194D5543056002E0174D056024
:1017700000BF00BF144D6D6805F0F0010909154D5B
:101780006B5C0568DD4045600F4D6D6805F4E061F8
:10179000090A104D6B5C4568DD4085600A4D6D6837
:1017A00005F46051C90A0B4D6B5C4568DD40C560AE
:1017B000054D6D6805F44041890B074D6B5CC568AC
:1017C000B5FBF3F5056130BD0010024000127A0050
:1017D00000093D001C0000202C00002000210B4AC5
:1017E00011700A4A203A82F82010012802D00428F9
:1017F00008D103E00121054A117004E00521034AE4
:10180000117000E000BF00BF7047000020100240D0
:10181000F0B503461446802B01DA202900DBF0BD29
:101820002148007920B10CB9012000E000200446D5
:10183000012C1CD1CD1701EB5575ED1003EBC5152F
:101840001A4E755D0A46CE1701EB5676F610A1EBDF
:10185000C6070126BE403543EEB20846CD1701EB60
:101860005575ED1003EBC515104F7E551AE0CD17D9
:1018700001EB5575ED1003EBC5150C4E755D0A4671
:10188000CE1701EB5676F610A1EBC6070126BE4037
:10189000B5430846CE1701EB5676F61003EBC61695
:1018A000024FBD5500BFBAE778000020A901002013
:1018B00010B504460CB9002000E0FF2002464FF4AA
:1018C00000710248FEF750FC10BD0000A901002085
:1018D000014A1080518070477800002010B540F612
:1018E000C41400E0641E002CFCD1AE2200213C2078
:1018F00002F0CEF9A62200213C2002F0C9F9AE2266
:1019000000213C2002F0C4F9D52200213C2002F045
:10191000BFF9802200213C2002F0BAF9A822002160
:101920003C2002F0B5F91F2200213C2002F0B0F962
:10193000D32200213C2002F0ABF9002211463C20CA
:1019400002F0A6F9402200213C2002F0A1F98D22EC
:1019500000213C2002F09CF9142200213C2002F0DE
:1019600097F9202200213C2002F092F90222002166
:101970003C2002F08DF9A12200213C2002F088F9E0
:10198000C82200213C2002F083F9DA2200213C2009
:1019900002F07EF9022200213C2002F079F9812236
:1019A00000213C2002F074F9CF2200213C2002F0FB
:1019B0006FF9D92200213C2002F06AF9F1220021BE
:1019C0003C2002F065F9DB2200213C2002F060F9A6
:1019D000402200213C2002F05BF92E2200213C2015
:1019E00002F056F9A42200213C2002F051F9A6226F
:1019F00000213C2002F04CF9AF2200213C2002F0F3
:101A000047F90020FFF754FF00F074F80020034965
:101A1000088048800120487110BD00007800002037
:101A20002DE9F04307460C46904626480088217869
:101A30000844802805DA2348408861780844202833
:101A400002DB0020BDE8F083002530E0A7F1200094
:101A5000617800FB0150616831F81090002622E0A7
:101A600009FA06F000F4004058B1164A52882A4498
:101A700091B2144A1288324490B24246FFF7C8FE2F
:101A800010E0B8F1000F01D1012300E000231A4655
:101A90000C4B5B882B4499B20A4B1B88334498B299
:101AA000FFF7B6FE761C2078B042D9D86D1C60785E
:101AB000A842CBD80348008821780844014908800F
:101AC0003846BFE77800002070B504460D4616463C
:101AD0000AE0207832462946FFF7A2FF21788842A3
:101AE00001D0207870BD641C20780028F1D12078C6
:101AF000F8E7000010B500241BE004F1B000C2B20A
:101B000000213C2002F0C4F8002211463C2002F0E3
:101B1000BFF8102200213C2002F0BAF806488021CC
:101B200001FB04020B4640213C2002F0BBF8601C84
:101B3000C4B2082CE1DB10BDA901002070470000F1
:101B400008B50120FFF78CFD0020FFF747FE0020BD
:101B5000FEF7FCFF0020FFF783FD01210420FFF7C3
:101B6000B3FD0120ADF8000010208DF80300022025
:101B70008DF802006946CA48FFF73AF801210420AF
:101B8000FFF7A2FD0220ADF8000010208DF8030041
:101B900002208DF802006946C148FFF729F80121AB
:101BA0000420FFF791FD0420ADF8000010208DF80F
:101BB000030002208DF802006946B948FFF718F8C3
:101BC00001210420FFF780FD0820ADF8000010205F
:101BD0008DF8030003208DF802006946B048FFF736
:101BE00007F801210820FFF76FFD1020ADF8000075
:101BF0008DF8030003208DF802006946A948FEF71E
:101C0000F7FF01210820FFF75FFD2020ADF800005D
:101C100010208DF8030003208DF802006946A148CA
:101C2000FEF7E6FF01210820FFF74EFD0120ADF889
:101C3000000010208DF8030003208DF80200694693
:101C40009848FEF7D5FF01210820FFF73DFD02204F
:101C5000ADF8000010208DF8030003208DF802007D
:101C600069469048FEF7C4FF01210420FFF72CFDD0
:101C70004FF40040ADF8000010208DF80300032061
:101C80008DF8020069468648FEF7B2FF0121082060
:101C9000FFF71AFD0820ADF8000010208DF80300B2
:101CA00003208DF8020069467E48FEF7A1FF01215E
:101CB0000820FFF709FD4FF48060ADF80000102008
:101CC0008DF8030003208DF8020069467548FEF781
:101CD0008FFF01210820FFF7F7FC4FF40060ADF8FB
:101CE000000010208DF8030003208DF802006946E3
:101CF0006C48FEF77DFF01210820FFF7E5FC40203E
:101D0000ADF8000010208DF8030003208DF80200CC
:101D100069466448FEF76CFF01210820FFF7D4FCF8
:101D20008020ADF8000010208DF8030003208DF80E
:101D3000020069465B48FEF75BFF01210820FFF7C0
:101D4000C3FC4FF48070ADF8000010208DF8030044
:101D500003208DF8020069465248FEF749FF012131
:101D60000820FFF7B1FC4FF40070ADF80000102020
:101D70008DF8030003208DF8020069464948FEF7FC
:101D800037FF01211020FFF79FFC4020ADF8000035
:101D900010208DF8030003208DF8020069464248A8
:101DA000FEF726FF01211020FFF78EFC8020ADF802
:101DB000000010208DF8030003208DF80200694612
:101DC0003948FEF715FF01211020FFF77DFC4FF485
:101DD0008070ADF8000010208DF8030003208DF80E
:101DE000020069463048FEF703FF01211020FFF78B
:101DF0006BFC4FF40070ADF8000010208DF803006C
:101E000003208DF8020069462748FEF7F1FE012104
:101E10000420FFF759FC4FF48070ADF8000010204B
:101E20008DF8030003208DF8020069461C48FEF778
:101E3000DFFE01210820FFF747FC4FF48040ADF89A
:101E4000000010208DF8030003208DF80200694681
:101E50001448FEF7CDFE01210820FFF735FC4FF4B2
:101E60000040ADF8000010208DF8030003208DF82D
:101E7000020069460B48FEF7BBFE01210420FFF774
:101E800023FC4FF40060ADF8000010208DF8030033
:101E900003208DF8020069460148FEF7A9FE08BD3F
:101EA00000080140000C01400010014010B500F096
:101EB00001F810BD0CB50020019000903348006877
:101EC00040F480303149086000BF3048006800F4B9
:101ED000003000900198401C0190009818B90198BA
:101EE000B0F5A06FF1D12948006800F4003010B1BE
:101EF0000120009001E0002000900098012843D1CB
:101F00002348006840F01000214908600846006836
:101F100020F0030008600846006840F002000860F6
:101F20001A484068194948600846406848600846B1
:101F3000406840F4806048600846406820F47C10A7
:101F400048600846406840F4E81048600846006869
:101F500040F08070086000BF0C48006800F000701E
:101F60000028F9D00948406820F00300074948607C
:101F70000846406840F00200486000BF03484068DF
:101F800000F00C000828F9D10CBD00000010024040
:101F900000200240042808D14FF0E021096941F0F7
:101FA00004014FF0E022116107E04FF0E0210969E0
:101FB00021F004014FF0E0221161704770470000EA
:101FC00010B51348006840F0010011490860084648
:101FD0004068104908400E494860084600680E49AC
:101FE00008400B4908600846006820F4802008601B
:101FF0000846406820F4FE0048604FF41F008860E7
:10200000FFF754FF4FF000600449086010BD000066
:10201000001002400000FFF8FFFFF6FE08ED00E0B0
:102020007FB504460D460121C802FFF74DFBADF810
:102030000840681E80B2ADF804000020ADF80A0028
:10204000ADF806008DF80C0001A90E4800F032FC36
:10205000012211460B4800F024FC19208DF80000E5
:1020600000208DF8010003208DF8020001208DF87A
:1020700003006846FFF798F80121024800F0FFFAD4
:102080007FBD0000002C014010B50121F84800F090
:10209000F7FB00287ED00121F54800F0EDFAF54865
:1020A0000068401CF3490860F348006800EB4001F9
:1020B00001EBC00000F5FA70F049096890FBF1F0FF
:1020C000EC490968884204DB0121ED48FEF76FFE08
:1020D00003E00121EA48FEF768FEE748406800EBAC
:1020E000400101EBC00000F5FA70E449096890FB7B
:1020F000F1F0E0490968884204DB0221E048FEF77C
:1021000056FE03E00221DE48FEF74FFEDA48806803
:1021100000EB400101EBC00000F5FA70D7490968F7
:1021200090FBF1F0D3490968884204DB0421D448CC
:10213000FEF73DFE03E00421D148FEF736FECE480F
:10214000C06800EB400101EBC00000F5FA70CB491C
:10215000096890FBF1F0C7490968884204DB08214F
:10216000C748FEF724FE03E00821C548FEF71DFE20
:10217000C148006900EB400101EBC00000F5FA70B6
:10218000BE49096890FBF1F0BA490968884206DB4C
:10219000102100E00DE2BB48FEF709FE03E010212C
:1021A000B848FEF702FEB448406900EB400101EB7D
:1021B000C00000F5FA70B149096890FBF1F0AD4933
:1021C0000968884204DB2021AE48FEF7F0FD03E0F9
:1021D0002021AC48FEF7E9FDA748806900EB4001EB
:1021E00001EBC00000F5FA70A449096890FBF1F01A
:1021F000A0490968884204DB0121A248FEF7D7FD07
:1022000003E001219F48FEF7D0FD9B48C06900EB29
:10221000400101EBC00000F5FA709849096890FB95
:10222000F1F094490968884204DB02219548FEF7E1
:10223000BEFD03E002219348FEF7B7FD8E48006A19
:1022400000EB400101EBC00000F5FA708B49096812
:1022500090FBF1F087490968884205DB4FF40041A3
:102260008748FEF7A4FD04E04FF400418448FEF7E0
:102270009CFD8148406A00EB400101EBC00000F585
:10228000FA707E49096890FBF1F07A490968884242
:1022900004DB08217B48FEF78AFD03E0082179482A
:1022A000FEF783FD7448806A00EB400101EBC0003B
:1022B00000F5FA707149096890FBF1F06D49096801
:1022C000884205DB4FF480616E48FEF770FD04E044
:1022D0004FF480616B48FEF768FD6748C06A00EB09
:1022E000400101EBC00000F5FA706449096890FBF9
:1022F000F1F060490968884205DB4FF400616148EC
:10230000FEF755FD04E04FF400615E48FEF74DFD19
:102310005948006B00EB400101EBC00000F5FA707A
:102320005649096890FBF1F052490968884204DB7C
:1023300040215448FEF73BFD03E040215148FEF7A1
:1023400034FD4D48406B00EB400101EBC00000F54F
:10235000FA704A49096890FBF1F0464909688842D9
:1023600004DB80214748FEF722FD03E08021454839
:10237000FEF71BFD4048806B00EB400101EBC00005
:1023800000F5FA703D49096890FBF1F03949096898
:10239000884205DB4FF480713A48FEF708FD04E0FF
:1023A0004FF480713748FEF700FD3348C06B00EBF7
:1023B000400101EBC00000F5FA703049096890FB5C
:1023C000F1F02C490968884205DB4FF400712D4873
:1023D000FEF7EDFC04E04FF400712A48FEF7E5FC3F
:1023E0002548006C00EB400101EBC00000F5FA70DD
:1023F0002249096890FBF1F01E490968884204DB14
:1024000040212148FEF7D3FC03E040211E48FEF79F
:10241000CCFC1948406C00EB400101EBC00000F51A
:10242000FA701649096890FBF1F012490968884270
:1024300004DB80211448FEF7BAFC03E08021124837
:10244000FEF7B3FC0C48806C00EB400101EBC000D0
:1024500000F5FA700949096890FBF1F0054909682F
:10246000884213DB4FF480710748FEF7A0FC12E0AE
:10247000002C014034000020C00000203800002063
:1024800000080140000C0140001001404FF4807131
:102490004848FEF78AFC4848C06C00EB400101EB5D
:1024A000C00000F5FA704549096890FBF1F0444915
:1024B0000968884205DB4FF400713E48FEF777FC5F
:1024C00004E04FF400713B48FEF76FFC3A48006DA2
:1024D00000EB400101EBC00000F5FA7037490968D4
:1024E00090FBF1F036490968884205DB4FF48071B2
:1024F0003448FEF75CFC04E04FF480713148FEF78D
:1025000054FC2D48406D00EB400101EBC00000F58C
:10251000FA702A49096890FBF1F029490968884254
:1025200005DB4FF480412848FEF741FC04E04FF4FE
:1025300080412548FEF739FC1F48806D00EB4001C3
:1025400001EBC00000F5FA701C49096890FBF1F03E
:102550001B490968884205DB4FF400411A48FEF721
:1025600026FC04E04FF400411748FEF71EFC124819
:10257000C06D00EB400101EBC00000F5FA700F499F
:10258000096890FBF1F00E490968884205DB4FF4B9
:1025900000610C48FEF70BFC04E04FF400610948B1
:1025A000FEF703FC06480068C82802D10020044951
:1025B000086010BD00100140C0000020380000205D
:1025C0003400002000080140000C014010B501213A
:1025D000880700F055F958B10121880700F04CF840
:1025E0000448006820B103480068401E01490860A3
:1025F00010BD00006000002010B501211A4800F055
:102600003FF978B30121184800F036F81748006800
:10261000401C16490860084600683C21B0FBF1F2F6
:1026200001FB1200B0B91248007808B9012000E09F
:1026300000200F49087008460078002805DD4FF497
:1026400000510C48FEF7B3FB04E04FF40051094879
:10265000FEF7ABFB05480068B0F5967F02D300207B
:102660000249086010BD0000000400406400002022
:102670006800002000100140CA430282704721B167
:10268000028842F00102028004E002884FF6FE73E5
:102690001A4002807047000010B504466848844222
:1026A00008D10121C014FFF71FF80021E014FFF743
:1026B0001BF8C4E0B4F1804F08D101210846FEF7B1
:1026C000F3FF00210120FEF7EFFFB8E05D488442F0
:1026D00008D101210220FEF7E7FF00210220FEF7CA
:1026E000E3FFACE05848844208D101210420FEF702
:1026F000DBFF00210420FEF7D7FFA0E0534884420F
:1027000008D101210820FEF7CFFF00210820FEF7A5
:10271000CBFF94E04E48844208D101211020FEF7FF
:10272000C3FF00211020FEF7BFFF88E04948844224
:1027300008D101212020FEF7B7FF00212020FEF75D
:10274000B3FF7CE04448844208D101214014FEF7E5
:10275000CBFF00216014FEF7C7FF70E03F488442C2
:1027600009D10121C804FEF7BFFF00214FF400206A
:10277000FEF7BAFF63E03A48844209D10121080517
:10278000FEF7B2FF00214FF48010FEF7ADFF56E0D8
:102790003448844209D101214805FEF7A5FF0021F4
:1027A0004FF40010FEF7A0FF49E02F48844208D103
:1027B00001214020FEF778FF00214020FEF774FF42
:1027C0003DE02A48844208D101218020FEF76CFFB9
:1027D00000218020FEF768FF31E02548844208D1BF
:1027E00001218015FEF760FF0021A015FEF75CFFB8
:1027F00025E02048844209D101210804FEF774FF36
:1028000000214FF48030FEF76FFF18E01A48844231
:1028100009D101214804FEF767FF00214FF4003081
:10282000FEF762FF0BE01548844208D101218804BD
:10283000FEF75AFF00214FF48020FEF755FF10BD30
:10284000002C01400004004000080040000C004043
:10285000001000400014004000340140004C0140D2
:10286000005001400054014000180040001C00408E
:102870000020004000400140004401400048014069
:1028800030B50246002000230024158A05EA010322
:10289000958905EA010413B10CB1012000E0002084
:1028A00030BD1AB183890B43838102E083898B4356
:1028B00083817047002202881D4B98420ED01D4B29
:1028C00098420BD0B0F1804F08D01B4B984205D0F6
:1028D0001A4B984202D01A4B984204D14FF68F738C
:1028E0001A404B881A43174B984207D0164B984210
:1028F00004D04FF6FF431A40CB881A4302808B88DE
:1029000083850B8803850A4B98420BD0094B98426C
:1029100008D00E4B984205D00D4B984202D00D4B7B
:10292000984201D10B7A038601238382704700000D
:10293000002C014000340140000400400008004029
:10294000000C004000100040001400400040014016
:10295000004401400048014010B540F225510648AE
:1029600000F078F930B1044800F030FAC4B22046E3
:1029700000F064FF10BD00000050004010B586B0AC
:10298000044601210805FEF77FFE01213020FEF7F5
:102990009BFE4FF48050ADF8140018208DF81700FE
:1029A00003208DF8160005A91E48FEF721F9042022
:1029B000ADF814008DF8170005A91B48FEF718F9AB
:1029C00001940020ADF80800ADF80A00ADF80C0045
:1029D000ADF810000C20ADF80E0001A9134800F06E
:1029E00089F9002240F22771104800F05DF90122B8
:1029F00040F225510D4800F057F901210B4800F035
:102A000010F935208DF8000001208DF80100042018
:102A10008DF8020001208DF803006846FEF7C4FB24
:102A200006B010BD001001400014014000500040ED
:102A300010B5002440F22551054800F00BF930B1E3
:102A4000034800F0C3F9C4B2204600F003F810BDFB
:102A50000038014010B5044600BF8021044800F052
:102A6000ECF80028F9D02146014800F0B4F910BD77
:102A70000038014010B586B00446012144F204003C
:102A8000FEF722FE4FF40070ADF8140018208DF808
:102A9000170003208DF8160005A92248FEF7A8F8B4
:102AA0004FF48060ADF8140004208DF8170005A9DC
:102AB0001C48FEF79DF801940020ADF80800ADF821
:102AC0000A00ADF80C00ADF810000C20ADF80E00B7
:102AD00001A9154800F00EF9002240F227711248B2
:102AE00000F0E2F8012240F225510F4800F0DCF836
:102AF00040210D4800F08CF801210B4800F091F8BE
:102B000025208DF8000001208DF8010003208DF8AC
:102B1000020001208DF803006846FEF745FB06B071
:102B200010BD0000000801400038014010B540F21F
:102B30002551064800F08EF830B1044800F046F9FF
:102B4000C4B2204600F07AFE10BD000000480040EC
:102B500010B586B0044601218804FEF795FD0121D9
:102B60001120FEF7B1FD01212648FEF7CDF84FF404
:102B70008060ADF8140018208DF8170003208DF840
:102B8000160005A92048FEF733F84FF40060ADF8B1
:102B9000140004208DF8170005A91B48FEF728F83B
:102BA00001940020ADF80800ADF80A00ADF80C0063
:102BB000ADF810000C20ADF80E0001A9134800F08C
:102BC00099F8002240F22771104800F06DF80122B8
:102BD00040F225510D4800F067F801210B4800F044
:102BE00020F827208DF8000001208DF80100042036
:102BF0008DF8020001208DF803006846FEF7D4FA34
:102C000006B010BD10001400001001400048004044
:102C100001F40072B2F5007F00D100BFCA43028008
:102C2000704721B1828942F40052828104E0828996
:102C30004DF6FF731A408281704702460020B1F5BD
:102C4000007F00D100BF13880B400BB1012000E0D2
:102C50000020704770B502460024002300250020A4
:102C600040F66A16B14200D100BFC1F3421501F02F
:102C70001F03012606FA03F3012D02D19689334082
:102C800006E0022D02D1168A334001E0968A3340D5
:102C90000C12012606FA04F41688344013B10CB164
:102CA000012000E0002070BDF0B50346002400269E
:102CB0000025002040F66A17B94200D100BF18462F
:102CC000C1F3421401F01F06012707FA06F5012C93
:102CD00001D10C3004E0022C01D1103000E014309E
:102CE0001AB107682F43076002E00768AF43076027
:102CF000F0BD00002DE9F04786B005460E460024E1
:102D0000A24600BFA1460027B08900B100BF2F46F0
:102D10002C8A4CF6FF700440F08804432C82AC8966
:102D20004EF6F3100440B088318908437189084396
:102D30000443AC81AC8A4FF6FF400440B0890443A1
:102D4000AC8201A8FEF7E0FC1F48874202D1DDF803
:102D500010A001E0DDF80CA0A88900F4004040B10B
:102D60000AEBCA0000EB0A1031684900B0FBF1F829
:102D700007E00AEBCA0000EB0A1031688900B0FBDB
:102D8000F1F86420B8FBF0F004012009642101FB94
:102D90001089A88900F4004040B1322000EBC9003E
:102DA000B0FBF1F000F00700044308E0322000EB34
:102DB00009106421B0FBF1F000F00F0004432C81F6
:102DC00006B0BDE8F0870000003801400146888861
:102DD000C0F308007047C1F308028280704700BF4B
:102DE000FEE700000FB4084B10B504A902AA03982F
:102DF00000F0DEF8044602A9002000F070FC204636
:102E000010BC5DF814FB0000DF36000802E008C8C3
:102E1000121F08C1002AFAD170477047002001E054
:102E200001C1121F002AFBD1704700002DE9FF5F8E
:102E300082B00021DDE90430020DDDF840B003432B
:102E400018D044F61050A2F2FF32424315141198E4
:102E500001281FD0A5EB0B00401C5FEA000A4FF0D1
:102E600000064E4FDFF83891B046504615D5CAF1EE
:102E7000000413E0119801244AA3012801D16FEA4C
:102E80000B010298119AC0E90031C0E9024206B074
:102E9000BDE8F09FCBF10000DFE704460021404A87
:102EA000491842EB0450CDE9001012E0E00707D0CA
:102EB00032463B4640464946FDF79AF980468946E8
:102EC00032463B4610461946FDF792F906460F4634
:102ED0006410002CEAD1DDE90401DDE90023BAF138
:102EE000000F06DAFDF784F942464B46FDF780F9FC
:102EF00005E0FDF7EFF942464B46FDF7EBF90446D6
:102F00000E460022284BFDF74DFC03D84FF0FF3052
:102F1000014607E00022254B20463146FDF782FBA3
:102F2000FDF727FC102409E0002C0ADB0A2200230D
:102F3000FDF7B3FA039B30321A55641E50EA0102C2
:102F4000F2D1641C039AC4F111031444119A012AAA
:102F500003D0012208430DD10AE0084304D0002029
:102F60004FF0110B119072E7A3EB0B056D1E0DE0F6
:102F70005B4504DD4FF0000205F1010504E003DAD2
:102F80004FF00002A5F10105002AECD0029811993A
:102F9000C0E90231C0E9004579E7000000001440B3
:102FA0000000F03F300000000000F0430000E03F70
:102FB0002DE9FF4F95B09B468946064600250FE256
:102FC000252877D100242746F84A0121059400E0FE
:102FD000044316F8013F203B01FA03F01042F7D1F9
:102FE00030782A2811D06FF02F033078A0F130020A
:102FF000092A16D8059A44F0020402EB820203EB78
:1030000042021044761C0590EFE759F8042B059214
:10301000002A03DA504244F40054059044F00204BC
:10302000761C30782E2816D116F8010F44F00404CF
:103030002A280DD06FF02F023078A0F13003092B31
:1030400009D807EB870302EB4303C718761CF3E7A5
:1030500059F8047B761C30786C280FD006DC4C289D
:1030600017D068280DD06A2814D104E0742810D035
:103070007A280FD10DE044F400140AE044F48014DF
:1030800001E044F440147278824202D104F58014C5
:10309000761C761C307866280BD013DC582877D045
:1030A00009DC002875D04528F6D04628F4D04728FA
:1030B0001AD19DE118E0632835D0642879D06528BD
:1030C00012D195E1702873D008DC6728F1D0692807
:1030D0006FD06E280DD06F2806D1B5E073282CD0A4
:1030E000752875D0782874D05A46179990476D1C6A
:1030F00075E1C4F30250022809D003280DD0D9F895
:10310000001004280DD00D6009F1040967E1D9F819
:103110000010EA17C1E90052F6E7D9F800100D8057
:10312000F2E70D70F0E719F8041B8DF8001000208D
:103130008DF80100EA46012003E059F804AB4FF096
:10314000FF3061074FF0000102D40DE008F10101EA
:103150008846B9420FDA8045F8DB1AF808100029D2
:10316000F4D108E008F1010188468142FADB1AF83F
:1031700008100029F6D105985B46A0EB0807214608
:103180003846179A00F094FA284400EB080507E047
:103190004DE029E10DE01AF8010B5A4617999047C6
:1031A000B8F10108F7D25B4621463846179A13E179
:1031B00042E00A220092C4F302524FF0000A022AAF
:1031C00008D059F804CB032A4FEAEC710AD00DE07D
:1031D00029E02AE009F1070121F00702F2E802C123
:1031E000914609E00FFA8CFC4FEAEC71042A03D1F6
:1031F0004FFA8CFC4FEAEC71002907DA0A460021ED
:10320000DCF1000C61EB02012D2202E0220504D565
:103210002B228DF80420012203E0E20701D02022B6
:10322000F7E7904659E00A2102E010220DE0102154
:103230004FF0000A00910BE010224FF0000A44F01A
:1032400004040827009203E008224FF0000A0092CD
:10325000C4F30252022A05D059F804CB0021032AF4
:1032600008D009E009F1070121F00702F2E802C1E4
:10327000914605E01FFA8CFC042A01D10CF0FF0CEA
:103280004FF00008220728D5702806D0009B83F055
:10329000100353EA0A0305D00EE040228DF8042003
:1032A000012208E05CEA010206D030228DF80420F9
:1032B0008DF8050002229046009B83F0080353EA34
:1032C0000A030AD15CEA010201D1620705D5302266
:1032D0008DF804204FF001087F1E582804D034A038
:1032E00003900EA802900DE036A0F9E75346604621
:1032F000009AFDF7D2F884460398825C0298401E3B
:10330000029002705CEA0100F0D1029806A9081A46
:1033100000F1200A600702D524F4803400E0012780
:10332000574502DDA7EB0A0000E0002000EB0A0190
:10333000009005984144401A0590E00306D45B468E
:103340002146179A059800F0B3F90544002706E0D6
:1033500001A85A46C05D179990476D1C7F1C4745D0
:10336000F6DBE0030CD55B462146179A059800F082
:103370009FF9054404E030205A46179990476D1C88
:103380000099481E00900029F5DC08E00298029997
:103390005A460078491C0291179990476D1CBAF162
:1033A0000001AAF1010AF1DC65E100000928010031
:1033B00030313233343536373839616263646566AB
:1033C000000000003031323334353637383941426D
:1033D000434445460000000000F058F90544761CBF
:1033E000307800287FF4ECAD19B02846BDE8F08FA6
:1033F000620700D4062709F1070222F0070CFCE857
:103400000223E14603F000485FEA080C02D00FF205
:10341000702C0DE05FEA045C02D50FF2682C07E027
:103420005FEAC47C02D00FF2602C01E0AFF2700CB6
:103430004FF0FF3823F00043CDF850C065280CD082
:1034400006DC452809D046281DD047283DD13DE05F
:10345000662818D067287ED138E00021112F01DBC3
:10346000112000E0781CCDE9000106A90EA8FFF7A5
:10347000DDFCDDE90F010E9A03910021009207F1B6
:10348000010A04914DE04FF000400097CDE9011092
:1034900006A90EA8FFF7CAFCDDE90F0203920E9BF6
:1034A00011990022DDF80CA00093049211B9791C47
:1034B00000EB010AB7EB0A0004D4C0F1FF3007F1BA
:1034C000010A0490AAEB0700019044E0012F00DA02
:1034D00001270021112F01DD112000E03846CDE940
:1034E000000106A90EA8FFF7A1FCDDE90F010E9A65
:1034F0000391002104910092BA4621070CD403994C
:10350000514500DA8A46BAF1010F05DD009AAAF1A9
:103510000101515C302908D0B84202DA10F1040FE1
:1035200006DA0121CDE9011015E0AAF10101E9E770
:10353000002805DC049901440491AAEB000102E093
:10354000411C514500DD8A460499401A401C0190F7
:103550004FF000400290200704D40198504501DB51
:10356000CDF8048000208DF84F0002980DF14F0730
:10357000B0F1004F25D02B200E9002984FF002089A
:1035800000280CDA404202902D200E9007E00A211C
:103590000298FCF76CFF3031029007F8011DB8F17A
:1035A0000001A8F10108F2DC02980028EFD1791E91
:1035B0000E980870307800F0200040F0450007F8C1
:1035C000020D12A8C01B00F107081498007800B182
:1035D000012000EB0A01019801EBE07105984144DC
:1035E000401A401E0590E00306D45B462146179A18
:1035F000059800F05DF805441498007818B15A4613
:10360000179990476D1CE00324D55B462146179A15
:10361000059800F04DF805441CE00498002807DBED
:10362000DDE90301884203DD0098405C179901E061
:10363000179930205A469047049805F10105401C1F
:1036400004900198401E019004D12E205A461799EB
:1036500090476D1CBAF10001AAF1010ADDDC05E01A
:1036600017F8010B5A46179990476D1CB8F10001E5
:10367000A8F10108F4DC5B462146179A0598ABE6F1
:103680002D0000002B000000200000002DE9F0417B
:10369000044600251E461746880404D405E0394632
:1036A0002020B0476D1C641EF9D52846BDE8F08186
:1036B0002DE9F041044600251E469046C80301D579
:1036C000302700E02027880404D505E0414638462D
:1036D000B0476D1C641EF9D52846BDE8F0810A6824
:1036E000531C0B601070704710B50E48006880B115
:1036F0004FF480510C48FDF75AFB642000F09AF912
:103700004FF480510848FDF750FB642000F092F917
:1037100007E00448006820B94FF480510248FDF7E3
:1037200044FB10BD60000020000801401FB50121CE
:103730000846FDF7A9FF4FF08040FEF7ADFF63207C
:10374000ADF8080040F2CF20ADF804000020ADF83D
:103750000A00ADF8060001A94FF08040FFF7AAF873
:10376000012211469007FFF79CF84FF4A060FDF787
:1037700053FD00208DF801008DF802001C208DF80B
:10378000000001208DF803006846FDF70DFD0121C2
:103790008807FEF774FF1FBD10B5FEF711FC4FF44C
:1037A000A060FDF739FD00F01FF9C82000F042F9D4
:1037B000FEF7C6F948216320FEF732FC4FF4E130F2
:1037C000FFF758F94FF41650FFF7C2F94FF41650AF
:1037D000FFF7D4F800F0D0F900F0B6F9FDF7CCFC13
:1037E000FDF76EF9FDF706FCFDF73CFEFDF7DCFE8C
:1037F0004FF47A7000F01EF9FDF7F8FA00F086F940
:10380000FEF76CF801230022194606A0FDF713FD10
:1038100001210846FDF758FF01210748FDF774FA1A
:1038200010BD00004F4C454420696E6974207375CB
:1038300063657373000000000002300010B5044699
:10384000242C02D1012011490870232C0FD1002013
:103850000F49104A127888540E4908700B490870B5
:1038600000F01AF80A480021016041600181074810
:103870000078012808D106480649097844540548CB
:103880000078401C0349087010BD0000BD000020F6
:10389000BD030020BC00002030B500BF00BF1748AA
:1038A00040784038C2B2501EC51700EB5575C5F3BD
:1038B000C703C51700EB5575ED10A0EBC505ECB2BD
:1038C0000E4880783038642568430C4DED78303DE3
:1038D00005EB850500EB4500084D2D79284430386F
:1038E00081B2002900DC0021B42900DBB4210448A6
:1038F00000EB431040F82410002030BDBD03002031
:10390000C00000202DE9FC470124FDF725F90446FD
:1039100054B9052000F0B4F90123002219461FA074
:10392000FDF789FC00F044F9012C33D11F480068F1
:10393000FCF76EFDCDE900011D4802781DA122486B
:10394000FFF750FA0123002219461F48FDF773FCC8
:1039500014211D48FCF70FFCFDF72EF98246FCF7F9
:103960002DFD07460022194BFCF7B4FC0546FCF779
:1039700062FD81464846FCF74BFD05462A460B464C
:1039800013A11148FFF72EFA0123002203210E484C
:10399000FDF751FCFFF7A8FEBDE8FC87766F6C745D
:1039A000616765206C6F772E2E2E000004000020CA
:1039B0000000002047726F703A256420205665721F
:1039C0003A252E3166200000A9030020000059404E
:1039D0004261747465727920766F6C3A20252E31BD
:1039E000662056200000000010B50E4800680E4901
:1039F000B0FBF1F0C4B26FF00400FEF7CBFAE117B0
:103A000004EB5171C910094A11701046007800EB9F
:103A10004001C1EBC0104FF6FF7101EAC00004493C
:103A2000088010BD0800002040420F003000002038
:103A30003200002001460D4A12884A434FF0E0232D
:103A40005A6100229A6101221A6100BF4FF0E02200
:103A5000106900F001021AB100F48032002AF5D09A
:103A600000224FF0E0231A619A6170473200002073
:103A700001460D4A12784A434FF0E0235A61002272
:103A80009A6101221A6100BF4FF0E022106900F034
:103A900001021AB100F48032002AF5D000224FF062
:103AA000E0231A619A617047300000202DE9F0414F
:103AB00005460E4617469846FDF7E0F910B9012075
:103AC000BDE8F0816906080EFDF7A6F9FDF732FAA8
:103AD00018B9FDF707FA0120F2E73046FDF79CF927
:103AE000FDF728FA00240BE018F80400FDF794F91C
:103AF000FDF720FA18B9FDF7F5F90020E0E7641C9E
:103B0000BC42F1DBFDF7EEF90020D9E770B50025E6
:103B1000012413E0FDF7B2F900B970BD6106080E8B
:103B2000FDF77AF9FDF706FA00B906E0FDF7DAF9D4
:103B3000681CC5B203490C5500BF641C802CE9DB2E
:103B400000BFEAE72901002008B501210420FDF7A4
:103B5000BBFD4FF48050ADF8000010208DF803003D
:103B600003208DF8020069460248FDF741F8FFF78F
:103B7000DDFD08BD0008014008B501211020FDF75A
:103B8000A3FD4FF40050ADF8000010208DF80300A5
:103B900003208DF8020069460448FDF729F84FF428
:103BA00000510248FDF703F908BD00000010014074
:103BB0001FB501210220FDF767FD1848FEF76CFDD7
:103BC00040F2E730ADF8080040F2CF20ADF8040035
:103BD0000020ADF80A00ADF8060001A90F48FEF775
:103BE00069FE012211460D48FEF75BFE4FF4A0600E
:103BF000FDF712FB00208DF8010001208DF8020076
:103C00001D208DF8000001208DF803006846FDF7A7
:103C1000CBFA01210148FEF732FD1FBD0004004030
:103C200000240DE0002507E05A20134901EB441160
:103C300041F82500681CC5B2082DF5DB601CC4B234
:103C4000032CEFDBFFF7A8FD15E0FFF75BFE00F0AC
:103C50005BFA00F035F80120FDF75AFA01280AD185
:103C600006480078401C054908700846007802287C
:103C700001DD00200870E8E7C000002000000020FF
:103C80004FF47A714143014A11607047600000208F
:103C900037B504460D4602AB012229462046FFF700
:103CA00005FF3EBD2DE9F04106460F4614461D4670
:103CB000EAB2234639463046FFF7F8FEBDE8F08108
:103CC00010B50720FDF7EEFAFE4908600820FDF761
:103CD000E9FAFD4908600520FDF7E4FAFB490860B0
:103CE0000620FDF7DFFAFA490860FDF735FBF949D0
:103CF000086008460068112827D2DFE800F026098E
:103D000045632781BD9FDBF2F1F0EFEEEDECEB00B8
:103D1000F148F249097800EB41100068B42807DB4C
:103D2000B420ED49ED4A127801EB421108600CE035
:103D3000E948EA49097800EB411000680A30E64991
:103D4000E64A127801EB42110860D7E1E248E34904
:103D5000097800EB41100068002807DC0020DE49EC
:103D6000DE4A127801EB421108600CE0DA48DB49C8
:103D7000097800EB411000680A38D749D74A127811
:103D800001EB42110860B9E1D348D449097800EB4E
:103D900041104068B42807DBB420CF49CF4A1278DD
:103DA00001EB421148600CE0CB48CC49097800EBAC
:103DB000411040680A30C849C84A127801EB4211E4
:103DC00048609BE1C448C549097800EB4110406850
:103DD000002807DC0020C049C04A127801EB4211DC
:103DE00048600CE0BC48BD49097800EB41104068D0
:103DF0000A38B949B94A127801EB421148607DE1AD
:103E0000B548B649097800EB41108068B42807DB53
:103E1000B420B149B14A127801EB421188600CE03C
:103E2000AD48AE49097800EB411080680A30AA49D4
:103E3000AA4A127801EB421188605FE1A648A749BF
:103E4000097800EB41108068002807DC0021A248B7
:103E5000A24A127800EB421081600CE09E489F4914
:103E6000097800EB411080680A389B499B4A127818
:103E700001EB4211886041E197489849097800EBCD
:103E80004110C068B42807DBB4219348934A1278E4
:103E900000EB4210C1600CE08F489049097800EBBC
:103EA0004110C0680A308C498C4A127801EB4211EB
:103EB000C86023E188488949097800EB4110C0684F
:103EC00000280FDC00208449844A127801EB42115B
:103ED000C86014E0E6E0A9E0C6E089E06AE04BE0F3
:103EE0002CE00DE07C487D49097800EB4110C0686A
:103EF0000A387949794A127801EB4211C860FDE02D
:103F000075487649097800EB41100069B42807DB51
:103F1000B4217148714A127800EB421001610CE043
:103F20006D486E49097800EB411000690A306A4912
:103F30006A4A127801EB42110861DFE0664867497E
:103F4000097800EB41100069002807DC0021624875
:103F5000624A127800EB421001610CE05E485F4952
:103F6000097800EB411000690A385B495B4A127816
:103F700001EB42110861C1E057485849097800EB4C
:103F800041104069B42807DBB4215348534A1278E2
:103F900000EB421041610CE04F485049097800EBBA
:103FA000411040690A304C494C4A127801EB4211E9
:103FB0004861A3E048484949097800EB411040694D
:103FC000002807DC00204449444A127801EB4211E2
:103FD00048610CE040484149097800EB41104069D4
:103FE0000A383D493D4A127801EB4211486185E0AB
:103FF00039483A49097800EB41108069B42807DB59
:10400000B4203549354A127801EB421188610CE041
:1040100031483249097800EB411080690A302E4955
:104020002E4A127801EB4211886167E02A482B4939
:10403000097800EB41108069002807DC0021264840
:10404000264A127800EB421081610CE02248234995
:10405000097800EB411080690A381F491F4A12781D
:1040600001EB4211886149E01B481C49097800EBCB
:104070004110C069B42807DBB4201749174A1278E9
:1040800001EB4211C8610CE013481449097800EBB8
:104090004110C0690A301049104A127801EB4211F0
:1040A000C8612BE00C480D49097800EB4110C0694C
:1040B000002815DC00210848084A127800EB42105D
:1040C000C1611AE0A8000020AC000020B000002070
:1040D000B4000020B8000020C00000200000002034
:1040E00007480849097800EB4110C0690A380449BB
:1040F000044A127801EB4211C86100BF00BF10BD35
:10410000C0000020000000202DE9F0474FF000091A
:10411000FCF7B6FF8146B9F1000F1ED1FCF7D8FFBE
:104120008246FCF74BF9074600221E4BFCF7D2F8FB
:104130000546FCF780F904462046FCF769F9054678
:104140002A460B4618A11D48FEF74CFE012300220B
:1041500002211A48FDF76FF820E0FCF7B9FF82460C
:10416000FCF72CF9074600220E4BFCF7B3F8054686
:10417000FCF761F904462046FCF74AF905462A4651
:104180000B460FA10D48FEF72DFE0520FFF778FD29
:104190000123002202210948FDF74DF8FFF7A4FA98
:1041A000BDE8F0870000594043757272656E743A3D
:1041B00020252E326620412000000000A9030020A7
:1041C00043757272656E742068617264213A2025AD
:1041D0002E32662041200000000000000000000098
:1041E00000000000000000000000000000100010AF
:1041F000001000100010001000000010000000006F
:104200000028002800280000000000000000000036
:104210000000000000240024007C00240048007CF2
:1042200000480048000000000038005400500038EA
:104230000014005400540038001000000020005406
:10424000005800300028005400140008000000004E
:1042500000100028002800100034004800480034F6
:10426000000000000010001000100000000000001E
:1042700000000000000000000008001000200020E6
:104280000020002000200020001000080020001066
:1042900000080008000800080008000800100020BE
:1042A000001000380010002800000000000000008E
:1042B000000000000000000000100010007C001052
:1042C00000100000000000000000000000000000DE
:1042D00000000000000000100010001000000000AE
:1042E0000000000000000038000000000000000096
:1042F00000000000000000000000000000000010AE
:10430000000000000008000800100010001000105D
:104310000020002000000000003800440044005449
:104320000044004400440038000000000010003049
:1043300000500010001000100010001000000000DD
:104340000038004400440004000800100020007CF5
:1043500000000000003800440004001800040004BD
:104360000044003800000000000800180028002861
:104370000048007C0008000800000000007C0040AD
:1043800000400078000400040044003800000000F1
:1043900000380044004000780044004400440038E5
:1043A00000000000007C0004000800100010002045
:1043B00000200020000000000038004400440038C5
:1043C000004400440044003800000000003800446D
:1043D00000440044003C0004004400380000000099
:1043E00000000000001000000000000000000010AD
:1043F00000000000000000000000001000000000AD
:10440000000000100010001000000000000C003040
:1044100000400030000C0000000000000000000020
:104420000000007C0000007C000000000000000094
:104430000000000000600018000400180060000088
:1044400000000000003800440004000800100010C4
:10445000000000100000000000380044004C005430
:10446000005C004000400038000000000010002800
:10447000002800280028007C0044004400000000C0
:104480000078004400440078004400440044007870
:1044900000000000003800440040004000400040A0
:1044A0000044003800000000007000480044004450
:1044B000004400440048007000000000007C004000
:1044C0000040007C004000400040007C00000000F4
:1044D000007C004000400078004000400040004068
:1044E000000000000038004400400040005C004430
:1044F0000044003800000000004400440044007CF8
:104500000044004400440044000000000038001053
:104510000010001000100010001000380000000013
:1045200000040004000400040004000400440038F7
:1045300000000000004400480050006000500048A7
:1045400000480044000000000040004000400040DF
:10455000004000400040007C000000000044006C6F
:10456000006C00540044004400440044000000007B
:1045700000440064006400540054004C004C0044AB
:10458000000000000038004400440044004400449F
:10459000004400380000000000780044004400445B
:1045A0000078004000400040000000000038004457
:1045B000004400440044004400540038000400005B
:1045C000007800440044004400780048004800445B
:1045D00000000000003800440040003000080004E3
:1045E0000044003800000000007C001000100010A3
:1045F00000100010001000100000000000440044F3
:10460000004400440044004400440038000000001E
:104610000044004400440028002800280010001036
:104620000000000000440044005400540054006C9A
:104630000028002800000000004400280028001086
:10464000001000280028004400000000004400443E
:1046500000280028001000100010001000000000CA
:10466000007C000400080010001000200040007CC6
:1046700000000000001800100010001000100010D2
:104680000010001000100018002000200010001082
:1046900000100010000800080000000000300010AA
:1046A000001000100010001000100010001000306A
:1046B0000010002800280044000000000000000056
:1046C00000000000000000000000000000000000EA
:1046D0000000000000FE00000020001000000000AC
:1046E00000000000000000000000000000000000CA
:1046F00000380044003C0044004C0034000000003E
:104700000040004000580064004400440064005829
:10471000000000000000000000380044004000409D
:104720000044003800000000000400040034004C85
:1047300000440044004C0034000000000000000071
:1047400000380044007C00400044003800000000B5
:10475000000C0010007C0010001000100010001071
:1047600000000000000000000034004C0044004441
:10477000004C003400040078004000400058006401
:104780000044004400440044000000000010000009
:104790000070001000100010001000100000000059
:1047A0000010000000700010001000100010001039
:1047B000001000E000400040004800500060005041
:1047C00000480044000000000070001000100010BD
:1047D0000010001000100010000000000000000099
:1047E00000780054005400540054005400000000AD
:1047F00000000000005800640044004400440044ED
:1048000000000000000000000038004400440044A4
:104810000044003800000000000000000058006460
:1048200000440044006400580040004000000000C4
:104830000034004C00440044004C003400040004E8
:1048400000000000005800640040004000400040AC
:1048500000000000000000000038004400300008A4
:1048600000440038000000000020002000780020F4
:1048700000200020002000180000000000000000C0
:104880000044004400440044004C00340000000098
:104890000000000000440044002800280028001008
:1048A0000000000000000000005400540054006CA0
:1048B000002800280000000000000000004400283C
:1048C000001000100028004400000000000000005C
:1048D0000044004400280028001000100010006070
:1048E00000000000007C0008001000200040007C58
:1048F0000000000000180010001000100020002030
:10490000001000100010001800100010001000101F
:1049100000100010001000100010001000300010F7
:1049200000100010000800080010001000100030F7
:104930000000000000000074004C000000000000B7
:104940000000000000000000000000000000000067
:104950000000000000000000000000000000000057
:1049600000000000000000000000000C000C000C23
:10497000000C000C000C000C000C000C000C000CD7
:104980000000000C000C0000000000000000001BF4
:10499000001B001B001B001B0000000000000000AB
:1049A0000000000000000000000000000000000007
:1049B00000008019801980198019C07FC07F80197C
:1049C0000033C07FC07F003300330033003300006A
:1049D000000000000000001E003F8075806500742C
:1049E000003C001E00078005806580658075003FE3
:1049F000001E0004000400000000007000D840D831
:104A0000C0D880D900730006000C801BC036C06679
:104A1000C046C00680030000000000000000001E29
:104A2000003F003300330033001E000CC03CC06662
:104A3000806380618063C03E801C00000000000035
:104A40000000000C000C000C000C000C000000002A
:104A50000000000000000000000000000000000056
:104A600000000000800000010003000600060004B2
:104A7000000C000C000C000C000C000C00040006E4
:104A80000006000300018000002000100018000C48
:104A9000000C0004000600060006000600060006E2
:104AA0000004000C000C0018001000200000000C96
:104AB000002D003F001E0033000000000000000039
:104AC00000000000000000000000000000000000E6
:104AD000000000000000000C000C000C000CC0FFE7
:104AE000C0FF000C000C000C000C000000000000D7
:104AF00000000000000000000000000000000000B6
:104B00000000000000000000000000000000000C99
:104B1000000C000400040008000000000000000079
:104B200000000000000000000000001E001E000049
:104B30000000000000000000000000000000000075
:104B40000000000000000000000000000000000065
:104B5000000000000000000C000C0000000000003D
:104B60000000000300030003000600060006000624
:104B7000000C000C000C000C0018001800180000BD
:104B8000000000000000001E003F003380618061D3
:104B90008061806D806D8061806180610033003F45
:104BA000001E00000000000000000006000E001EB5
:104BB0000036002600060006000600060006000675
:104BC0000006000600060000000000000000001EB5
:104BD000003F807380618061800100030006000C4B
:104BE000001800300060807F807F0000000000001F
:104BF0000000001C003E006300630003000E000E76
:104C000000038001800180618073003F001E00006E
:104C10000000000000000006000E000E001E001E36
:104C20000016003600360066807F807F0006000692
:104C300000060000000000000000007F007F006010
:104C400000600060006E007F8063800180018061F1
:104C50008073003F001E0000000000000000001EE6
:104C6000003F803380610060006E007F8073806150
:104C7000806180618033003F001E00000000000062
:104C80000000807F807F8001000300030006000693
:104C9000000C000C000C00080018001800180000A0
:104CA000000000000000001E003F80638061806102
:104CB0000021001E003F8061806180618061003FB3
:104CC000001E0000000000000000001E003F0073F6
:104CD0008061806180618073803F801D8001806180
:104CE0000073003F001E00000000000000000000F4
:104CF000000000000000000C000C0000000000009C
:104D0000000000000000000C000C0000000000008B
:104D1000000000000000000000000000000C000C7B
:104D200000000000000000000000000C000C000467
:104D30000004000800000000000000008000800364
:104D4000000E003800600038000E80038000000074
:104D50000000000000000000000000000000000053
:104D60000000807F807F00000000807F807F000047
:104D70000000000000000000000000000000000033
:104D80000000000000400070001C000780010007C8
:104D9000001C007000400000000000000000000047
:104DA0000000001F803FC071C060C000C0018003D0
:104DB0000007000E000C000C0000000C000C0000AE
:104DC000000000000000001E003F80318071806301
:104DD000806F806D806D806F806700600032003E64
:104DE000001C0000000000000000000E000E001B70
:104DF000001B001B001B80318031803F803F8031D1
:104E0000C060C060C0600000000000000000007CC6
:104E1000007E0063006300630063007E007E006329
:104E2000806180618063007F007E000000000000E0
:104E30000000001E003F8031806100600060006063
:104E400000600060006080618031003F001E000053
:104E5000000000000000007C007F00638063806130
:104E60008061806180618061806100630063007E99
:104E7000007C0000000000000000807F807F006058
:104E8000006000600060007F007F006000600060E4
:104E90000060807F807F0000000000000000807FB5
:104EA000807F0060006000600060007F007F006025
:104EB0000060006000600060006000000000000012
:104EC0000000001E003F80318061006000600060D3
:104ED00080638063806180618031803F001E0000BC
:104EE000000000000000806180618061806180615D
:104EF0008061807F807F806180618061806180616E
:104F000080610000000000000000003F003F000C36
:104F1000000C000C000C000C000C000C000C000C31
:104F2000000C003F003F0000000000000000800176
:104F30008001800180018001800180018001800169
:104F4000806180618073003F001E0000000000004F
:104F50000000C0608061006300660066006C00783D
:104F6000007C00660066006380618061C0600000B4
:104F70000000000000000060006000600060006051
:104F80000060006000600060006000600060807F82
:104F9000807F0000000000000000C071C071C07B75
:104FA000C07AC06AC06AC06EC064C060C060C060C1
:104FB000C060C060C06000000000000000008071A0
:104FC0008071807980798079806D806D806D806559
:104FD0008067806780678063806300000000000056
:104FE0000000001E003F00338061806180618061AD
:104FF00080618061806180610033003F001E00009D
:10500000000000000000007E007F806380618061FE
:1050100080618063007F007E00600060006000604F
:1050200000600000000000000000001E003F003390
:10503000806180618061806180618061806580675E
:105040000033803F401E0000000000000000007E92
:10505000007F8063806180618063007F007E0066E6
:105060000063006380618061C06000000000000098
:105070000000000E001F8031803100300038001E1B
:1050800000078003806180618031003F001E0000C6
:10509000000000000000C0FFC0FF000C000C000C6E
:1050A000000C000C000C000C000C000C000C000CA0
:1050B000000C000000000000000080618061806141
:1050C00080618061806180618061806180618061D8
:1050D0008073003F001E0000000000000000C06060
:1050E000C060C060803180318031001B001B001B1C
:1050F000001B000E000E000E000400000000000067
:105100000000C0C0C0C0C0C0C0C0C0C0C0CC804CC7
:10511000804C805E8052805280738061806100008C
:10512000000000000000C0C0806080610033003BD0
:10513000001E000C000C001E001F003B80718061EF
:10514000C0C00000000000000000C0C0806180619D
:1051500000330033001E001E000C000C000C000C7D
:10516000000C000C000C0000000000000000803F5C
:10517000803F8001000300030006000C000C0018B3
:10518000001800300060807F807F00000000000079
:10519000000F000F000C000C000C000C000C000CA9
:1051A000000C000C000C000C000C000C000C000C9F
:1051B000000F000F0000001800180018000C000C71
:1051C000000C000C000600060006000600030003A9
:1051D0000003000000000000001E001E0006000684
:1051E000000600060006000600060006000600068F
:1051F0000006000600060006001E001E0000000C4F
:10520000000C001E0012003300338061806100003A
:10521000000000000000000000000000000000008E
:10522000000000000000000000000000000000007E
:10523000000000000000000000000000000000006E
:10524000E0FF0000000000380018000C0000000023
:10525000000000000000000000000000000000004E
:10526000000000000000000000000000000000003E
:105270000000001F803F80618001801F803F8061AF
:105280008063807FC03800000000000000000060E4
:10529000006000600060006E007F8073806180614C
:1052A000806180618073007F006E0000000000005C
:1052B00000000000000000000000001E003F80739E
:1052C00080610060006080618073003F001E00000C
:1052D0000000000000008001800180018001801D2D
:1052E000803F807380618061806180618073803FD6
:1052F000801D000000000000000000000000000011
:105300000000001E003F00738061807F807F00608E
:105310008071003F001E0000000000000000C00778
:10532000C00F000C000C807F807F000C000C000C74
:10533000000C000C000C000C000C00000000000031
:105340000000000000000000801D803F807380612D
:105350008061806180618073803F801D80018063F7
:10536000007F003E00000060006000600060006F91
:10537000807F8071806180618061806180618061F7
:105380008061000000000000000000060006000030
:105390000000003E003E0006000600060006000673
:1053A00000060006000600000000000000060006DF
:1053B00000000000003E003E000600060006000659
:1053C000000600060006000600060046007E003CBF
:1053D00000000060006000600060806100630066A3
:1053E000006C007C0076006300638061C060000098
:1053F000000000000000003E003E0006000600061F
:10540000000600060006000600060006000600066C
:105410000006000000000000000000000000000086
:10542000000080DDC0FFC0CEC0CCC0CCC0CCC0CCA2
:10543000C0CCC0CCC0CC00000000000000000000C8
:10544000000000000000006F807F8071806180613B
:1054500080618061806180618061000000000000E7
:1054600000000000000000000000001E003F8073EC
:1054700080618061806180618073003F001E000058
:10548000000000000000000000000000006E007F2F
:10549000807380618061806180618073007F006EB5
:1054A000006000600060006000000000000000007C
:1054B000801D803F80738061806180618061807326
:1054C000803F801D8001800180018001000000007C
:1054D0000000000000000067803F0039003000300D
:1054E00000300030003000300030000000000000CC
:1054F00000000000000000000000001E803F8061EE
:105500000060007F803F80018061007F001E0000FE
:105510000000000000000000000800180018007FD4
:10552000007F001800180018001800180018801FCD
:10553000800F0000000000000000000000000000DC
:105540000000806180618061806180618061806134
:105550008063807F803D00000000000000000000AC
:10556000000000000000C060803180318031001BED
:10557000001B001B000E000E0006000000000000D3
:105580000000000000000000000080DD80DD80DD04
:1055900000550055005500770077002200220000DA
:1055A000000000000000000000000000000080611A
:1055B00000330033001E000C000C001E00330033CB
:1055C00080610000000000000000000000000000FA
:1055D00080618061803100330033001B001B001BA1
:1055E000000E000E000E001C007C00700000000089
:1055F000000000000000C07FC07F800100030006A3
:10560000000C00180030C07FC07F000000000000C8
:105610008003800700060006000600060006000E54
:10562000001C001C000E0006000600060006000616
:10563000800780030006000600060006000600063C
:10564000000600060006000600060006000600062A
:1056500000060006000600060038003C000C000CA6
:10566000000C000C000C000E00070007000E000CE0
:10567000000C000C000C000C003C00380000000086
:10568000000000000000000000008038807F00471C
:10569000000000000000000000000000000000000A
:1056A00000000000000000000000000000000000FA
:1056B00000000000000000000000000000000000EA
:1056C00000000000000000000000000000000000DA
:1056D00000000000E003E003E003E003E003E00378
:1056E000E003E003C003C003C001C001C001C0016A
:1056F000C001000000000000E003E003E003000040
:1057000000000000000000003C1E3C1E3C1E3C1E31
:105710003C1E3C1E3C1E000000000000000000007B
:105720000000000000000000000000000000000079
:10573000000000000000000000000000CE01CE03C9
:10574000DE039E039C039C07FF3FFF7F3807380F53
:10575000780F780F780EFFFFFFFFF01EF01CE01CA3
:10576000E03CE03DE03900000000000000000000E7
:10577000FC03FE0FEE1FE01EE01EE01EE01EE01F19
:10578000E00FE007F003FC01FE01FE01FE01FE0157
:10579000FE01FE01FE3DFC3FF00FE001E0010000D4
:1057A00000000000033E07F78FE78EE79EE3BCE3AF
:1057B000B8E7F8E7F0F7E03FC001FF03FF07F307A2
:1057C000F30FF31EF33CF338F3787FF03FE0000073
:1057D0000000000000000000E007F80F780F781FBD
:1057E000781F781F780FF00FE00F801FC37FC3FB77
:1057F000E7F3F7F1F7F0FFF07FF03EF87F7CFF3F33
:10580000EF1F00000000000000000000E003E003C4
:10581000E003E003E003C003C0010000000000005B
:105820000000000000000000000000000000000078
:105830000000000000000000000000000000000068
:105840003F007C00F001E001C003C0078007800733
:10585000800F000F000F000F000F000F000F800FD0
:1058600080078007C007C003E001F0017C003F0013
:105870000F000000007E001FC007C003E001F00120
:10588000F000F000F80078007800780078007800E8
:105890007800F800F000F000F001E001C003C0075C
:1058A000001F007E00780000E003C003C001CE3975
:1058B000FF3F7F3F20037003F807780F3C1F380637
:1058C00000000000000000000000000000000000D8
:1058D00000000000000000000000000000000000C8
:1058E0000000000000000000C001C001C001C001B4
:1058F000C001C001C001FFFFFFFFC001C001C00126
:10590000C001C001C0010000000000000000000054
:105910000000000000000000000000000000000087
:105920000000000000000000000000000000000077
:105930000000E003E003E003E003E001E001E00138
:10594000C001800300000000000000000000000013
:1059500000000000000000000000FE3FFE3F0000CD
:105960000000000000000000000000000000000037
:105970000000000000000000000000000000000027
:105980000000000000000000000000000000000017
:1059900000000000000000000000E003E003E0035E
:1059A000E003000000000000000000000F000F00F6
:1059B0001E001E003C003C0078007800F000F00063
:1059C000E001E001C003C00380078007000F000F63
:1059D000001E001E003C003C0078007800F0000033
:1059E000F007F80F7C1F3E3E1E3C1F7C1F7C0F788B
:1059F0000F780F780F780F780F780F781F7C1F7C47
:105A00001E3C3E3E7C1FF80FF00700000000000027
:105A100000000000F000F007F03FF03FF001F0015F
:105A2000F001F001F001F001F001F001F001F001EE
:105A3000F001F001F001F001F001FF3FFF3F000035
:105A40000000000000000000E00FF83F7C3C3C003C
:105A50003E003E003E003C003C007C00F800F001AF
:105A6000E003C0078007000F001E003E003CFE3F21
:105A7000FE3F00000000000000000000F00FF81FD3
:105A80007C1C3E003E003E003C003C00F800F00F55
:105A9000F80F7C003E001E001E001E001E003E008F
:105AA0007C1CF81FE01F0000000000000000000048
:105AB0007800F800F800F801F803F807F807780F05
:105AC000781E781E783C78787878FFFFFFFF7800A2
:105AD000780078007800780078000000000000006E
