:10013E003F065B4F666D7D077F6F777C395E797109
:03016000010D642A
:0A014E00EF1F70011E144E70F7221F
:0700DD007F0112008F7F017B
:0200E400AD0766
:1000E600AF051DEF60117C0AAF041CEF60F27F7D47
:0700F6007E0012014E80F1B3
:0100FD0022E0
:10011700759850E4F587758920758DFD758BFDD22F
:040127008ED2AF22A3
:080158008F993099FDC2992234
:10008F00AE07EE2440FEED75F064842430F50AEDE2
:10009F0075F06484E5F075F00A842430F50BED7586
:1000AF00F00A84E5F02430F50C7F24120158AF06D6
:1000BF00120158AF0A120158AF0B120158AF0C12B0
:0E00CF0001587F231201587F641200E4D322EF
:10012B00EF90013E93F580D2A6C2A6E4F580D2A74C
:03013B00C2A72236
:1000FE001201177F011200E4E4FD1200DD7D5A1299
:09010E0000DD7DB41200DD80EA81
:03000000020003F8
:0C000300787FE4F6D8FD75810F02004AFA
:10000F000200FEE493A3F8E493A34003F68001F209
:10001F0008DFF48029E493A3F85407240CC8C333F2
:10002F00C4540F4420C8834004F456800146F6DFC1
:10003F00E4800B0102040810204080900160E47EF0
:10004F00019360BCA3FF543F30E509541FFEE493B6
:10005F00A360010ECF54C025E060A840B8E493A37D
:10006F00FAE493A3F8E493A3C8C582C8CAC583CAA8
:10007F00F0A3C8C582C8CAC583CADFE9DEE780BE60
:01016300009B
:00000001FF
