:020000040000FA
:10000000F00220204D0100005101000053010000CA
:1000100000000000000000000000000000000000E0
:10002000000000000000000000000000550100007A
:100030000000000000000000570100003907000028
:100040005B0100005B0100005B0100005B01000040
:100050005B0100005B0100005B0100005B01000030
:10006000000000005B0100005B01000000000000D8
:10007000000000005B0100005B010000550700006C
:100080005B0100005B0100005B0100005B01000000
:100090005B0100005B0100000000000000000000A8
:1000A0005B0100005B010000000000000000000098
:1000B0005B010000000000005B0100005B0100002C
:1000C00000F002F800F032F80CA030C8083824180C
:1000D0002D18671EA246AB4654465D46AC4201D180
:1000E00000F024F87E460F3EB6460FCC0126334280
:1000F00000D0FB1A3343A246AB4618476C090000F8
:100100007C090000000000000023002400250026D8
:10011000103A01D378C1FBD8520700D330C100D5C3
:100120000B6070471FB51FBD10B510BD00F0DDF8A6
:100130001146FFF7F7FF00F069FC00F0F5F803B493
:10014000FFF7F2FF03BC00F017FC00000648004771
:10015000FEE7FEE7FEE7FEE7FEE7FEE703480449A9
:10016000024A044B70470000C1000000F00020204C
:10017000F0022020F0002020002203098B422CD323
:10018000030A8B4211D300239C464EE003460B43E7
:100190003CD4002243088B4231D303098B421CD349
:1001A000030A8B4201D394463FE0C3098B4201D33B
:1001B000CB01C01A524183098B4201D38B01C01A73
:1001C000524143098B4201D34B01C01A52410309EA
:1001D0008B4201D30B01C01A5241C3088B4201D399
:1001E000CB00C01A524183088B4201D38B00C01A46
:1001F000524143088B4201D34B00C01A5241411A6D
:1002000000D201465241104670475DE0CA0F00D04F
:100210004942031000D3404253409C460022030948
:100220008B422DD3030A8B4212D38901FC2212BACE
:10023000030A8B420CD3890192118B4208D38901A6
:1002400092118B4204D389013AD0921100E08909BE
:10025000C3098B4201D3CB01C01A524183098B429F
:1002600001D38B01C01A524143098B4201D34B0188
:10027000C01A524103098B4201D30B01C01A5241EB
:10028000C3088B4201D3CB00C01A524183088B4272
:1002900001D38B00C01A5241D9D243088B4201D3FB
:1002A0004B00C01A5241411A00D201465241104639
:1002B00063465B1001D34042002B00D54942704792
:1002C00063465B1000D3404201B50549002802DCBB
:1002D000491C084000E00846C046C04602BD00BFB9
:1002E000FFFFFF7F704770477047754600F024F8A6
:1002F000AE46050069465346C008C000854618B0A2
:1003000020B5FFF72BFF60BCB64600260027C0C50E
:10031000C0C5C0C5C0C5C0C5C0C5C0C5C0C5403DBD
:10032000490849008D46704710B50446C046C0468E
:100330002046FFF704FF10BD004870470000202052
:1003400082B001900199881E001F00BFFCD200906E
:1003500002B0704784B00390029101920398006844
:100360000090009801998843009000980299019AA2
:10037000114008430399086004B0704784B00390AB
:1003800002910192039800680090009801998843B7
:10039000009000980299019A11400843039908605F
:1003A00004B0704781B0009000990120C202454816
:1003B000885001B07047C04682B00190009100980B
:1003C0000349084301998900084A885002B07047E0
:1003D0008000040082B001900091009880210843C1
:1003E00001998900014A885002B070470480424058
:1003F00081B0009000995A4A5A48885001B070471D
:10040000064908680122904308607047034908685C
:1004100001221202904308607047C04608010B4059
:100420000349086801221203104308607047C04660
:1004300004010B4081B00146684601700078024912
:10044000086001B07047C04608030B4080B582B019
:10045000014601A80170017802480322FFF77AFFE4
:1004600002B080BD00010B4081B0009000991120C6
:100470000202885801239843885001B0704781B028
:1004800000900099112002028858012318438850D7
:1004900001B0704782B001900091009B0199034A1E
:1004A00088581843885002B07047C0462810000092
:1004B00081B0009000990120C2020248885001B02A
:1004C0007047C0460100002681B00090009881214D
:1004D00049014058C0B201B07047000080B582B0F9
:1004E000019000910198FFF7BFFF019811210902C7
:1004F0004018009A11889378194392881143084A4A
:10050000FFF73CFF01982A494018009A9179D37966
:100510001943127A11437E22FFF730FF02B080BDEB
:100520001867020081B000900098034940580121EB
:10053000084001B07047C0460811000081B000902B
:10054000009802494058C0B201B070472411000021
:1005500081B000900099024A0248885001B070476B
:1005600004080000030000B180B584B0039002913C
:10057000019203980B49401802990B4AFFF7EAFED3
:1005800003980A49401801993F22FFF7E3FE0399B7
:10059000074A8818895801221140FFF7DBFE04B092
:1005A00080BDC04610110000FFFF000014110000C4
:1005B0000411000082B00190009100980078019928
:1005C000044A88500098407801990122120388500B
:1005D00002B070470810000080B582B00190009111
:1005E000019811210902401800990322D203FFF754
:1005F000B1FE02B080BD82B0019068460170007803
:10060000019989225201885002B0704780B582B0AA
:10061000142002210191FFF7DDFE01991520FFF75B
:10062000CBFE02B080BD80B582B000200190FFF704
:1006300001FF0198FFF70AFFFFF7E2FEFFF7E6FE72
:10064000FFF7EEFE02B080BD80B57D20000200F015
:100650004FF880BD80B582B00D498F480190FFF7FB
:10066000A9FF01980B49FFF739FF01980021FFF717
:10067000B3FF01981A210322FFF776FF01980121A9
:100680008902FFF707FF0198FFF7F9FE02B080BD6E
:100690005C0A00005E0A000080B500F009F8FFF770
:1006A000B5FFFFF7C0FFFFF7D5FFFFF7CDFF80BD18
:1006B00080B584B00C480190FFF79AFE0B48029079
:1006C000FFF796FE74480390FFF742FF0198FFF78B
:1006D00069FE0298FFF766FE0398FFF7E9FE102017
:1006E000FFF72EFE04B080BD00000A4000200A4043
:1006F00080B584B002900298401E000E002803D0FE
:10070000FFE70120039011E00298401EBE490860F7
:1007100000200190C043032100F0ECF80198B94992
:100720000860044A072111600390FFE7039804B0B2
:1007300080BDC04610E000E005480068002805D0F4
:10074000FFE703490868401E0860FFE77047C0469E
:100750006400202080B582B001A9002008704E48B6
:10076000FFF7B2FE0B281AD1FFE74B48FFF7E6FE72
:1007700001A908700B4800887E2808DCFFE7019873
:10078000084B1A88511C19800749885403E0054911
:1007900000200880FFE705490120087000E0FFE71E
:1007A00002B080BDEE0020206C002020EC00202054
:1007B00080B58AB009AA0392107008A80190017050
:1007C000099940311170007864210791FFF7D4FC3A
:1007D000079902460198302302931A431A4B049357
:1007E0001A700078FFF7C8FC08460A210091FFF74D
:1007F000C3FC0099024601983032144B05931A70DD
:100800000078FFF7B9FC0298014311480690017087
:10081000242000F02DF80398007800F029F80498BF
:10082000007800F025F80598007800F021F8069887
:10083000007800F01DF8232000F01AF8079800F067
:100840009FF80AB080BDC0466000202061002020D3
:100850006200202080B582B0FFF71EFF0F200190BC
:1008600000F01CF8019800F02FF802B080BD0000E5
:1008700080B582B001A90870FFE70748FFF752FE74
:10088000002801D0FFE7F8E701A801780248FFF748
:10089000B2FE02B080BDC0460080104081B001466B
:1008A0006846017000214056002809D4FFE76846D9
:1008B00001781F2001400120884002490860FFE7BD
:1008C00001B0704780E200E081B0014668460170E7
:1008D00000214056002809D4FFE7684601781F2010
:1008E00001400120884002490860FFE701B07047DD
:1008F00000E100E070B582B0024601A802700091EC
:1009000000214056002816D4FFE7002401A908570B
:100910000322D3431840174A805809578C07E50E25
:10092000FF24AC40A043009CA401E4B2AC402043AF
:10093000194088501AE001A908780F24204008388F
:100940000322D34318400A4A8058002549578D078F
:10095000EE0EFF25B540A843009DAD01EDB2B540B8
:1009600028432140083919408850FFE702B070BD84
:100970001CED00E000E400E081B0009001B07047A1
:1009800080B582B0019001997D20C000484300F0FD
:1009900003F802B080BD000085B0049026200090CE
:1009A000049840010390174800680290FFE715483B
:1009B000006801900198029988421FD0FFE70198D2
:1009C0000299884207D2FFE702980199411A0098DC
:1009D0004018009009E00C4800680199401A0299FB
:1009E0004118009840180090FFE701980290009885
:1009F0000399884201D3FFE701E0FFE7D7E705B09D
:100A00007047C04618E000E014E000E080B582B016
:100A100000200190FFF71EFFFFE70F49002008604C
:100A2000FFE70D480068B32815DCFFE70A4800908F
:100A300001780120FFF7BCFE00980068B52804DBB0
:100A4000FFE7054900200860FFE7FFE70249086863
:100A5000401D0860E5E7E0E7680020200400000092
:100A60001800000000300000780A0000000020207C
:080A7000F00200000801000083
:04000005000000C136
:00000001FF
